{
	"data": {
		"bytecode": {
			"linkReferences": {},
			"object": "60806040523480156200001157600080fd5b5060405162002617380380620026178339818101604052810190620000379190620002d8565b82600090805190602001906200004f9291906200008b565b508160019080519060200190620000689291906200008b565b508060029080519060200190620000819291906200008b565b50505050620003f6565b8280546200009990620003c0565b90600052602060002090601f016020900481019282620000bd576000855562000109565b82601f10620000d857805160ff191683800117855562000109565b8280016001018555821562000109579182015b8281111562000108578251825591602001919060010190620000eb565b5b5090506200011891906200011c565b5090565b5b80821115620001375760008160009055506001016200011d565b5090565b6000604051905090565b600080fd5b600080fd5b600080fd5b600080fd5b6000601f19601f8301169050919050565b7f4e487b7100000000000000000000000000000000000000000000000000000000600052604160045260246000fd5b620001a48262000159565b810181811067ffffffffffffffff82111715620001c657620001c56200016a565b5b80604052505050565b6000620001db6200013b565b9050620001e9828262000199565b919050565b600067ffffffffffffffff8211156200020c576200020b6200016a565b5b620002178262000159565b9050602081019050919050565b60005b838110156200024457808201518184015260208101905062000227565b8381111562000254576000848401525b50505050565b6000620002716200026b84620001ee565b620001cf565b90508281526020810184848401111562000290576200028f62000154565b5b6200029d84828562000224565b509392505050565b600082601f830112620002bd57620002bc6200014f565b5b8151620002cf8482602086016200025a565b91505092915050565b600080600060608486031215620002f457620002f362000145565b5b600084015167ffffffffffffffff8111156200031557620003146200014a565b5b6200032386828701620002a5565b935050602084015167ffffffffffffffff8111156200034757620003466200014a565b5b6200035586828701620002a5565b925050604084015167ffffffffffffffff8111156200037957620003786200014a565b5b6200038786828701620002a5565b9150509250925092565b7f4e487b7100000000000000000000000000000000000000000000000000000000600052602260045260246000fd5b60006002820490506001821680620003d957607f821691505b60208210811415620003f057620003ef62000391565b5b50919050565b61221180620004066000396000f3fe608060405234801561001057600080fd5b50600436106100f55760003560e01c80634ef4e387116100975780639b2627c8116100665780639b2627c814610268578063c4c3890114610286578063db19eeb0146102ba578063e4e79a0c146102d8576100f5565b80634ef4e387146101da578063507a7328146101f857806363ef16271461021657806367ed729b14610234576100f5565b80633d8b08cc116100d35780633d8b08cc146101525780634262ee4b1461016e57806347e7ef24146101a05780634d93fb3c146101bc576100f5565b80630dfd9d9c146100fa57806316ada547146101165780632c4e722e14610134575b600080fd5b610114600480360381019061010f9190611605565b6102f4565b005b61011e6107b3565b60405161012b9190611667565b60405180910390f35b61013c6107b9565b6040516101499190611667565b60405180910390f35b61016c60048036038101906101679190611682565b6107bf565b005b61018860048036038101906101839190611724565b6109ff565b60405161019793929190611760565b60405180910390f35b6101ba60048036038101906101b59190611797565b610a59565b005b6101c4610bf2565b6040516101d19190611870565b60405180910390f35b6101e2610c80565b6040516101ef9190611870565b60405180910390f35b610200610d0e565b60405161020d9190611667565b60405180910390f35b61021e610d14565b60405161022b9190611667565b60405180910390f35b61024e60048036038101906102499190611724565b610d1a565b60405161025f959493929190611892565b60405180910390f35b610270610e90565b60405161027d9190611870565b60405180910390f35b6102a0600480360381019061029b9190611724565b610f1e565b6040516102b1959493929190611892565b60405180910390f35b6102c2611094565b6040516102cf9190611870565b60405180910390f35b6102f260048036038101906102ed9190611a28565b611122565b005b6000640100000000426103079190611ba6565b90506005546003546103199190611c06565b8163ffffffff1611610360576040517f08c379a000000000000000000000000000000000000000000000000000000000815260040161035790611cce565b60405180910390fd5b600a60008154811061037557610374611cee565b5b90600052602060002090600302016000015482111561039357600080fd5b6001831415610478578373ffffffffffffffffffffffffffffffffffffffff1663a9059cbb33846040518363ffffffff1660e01b81526004016103d7929190611d1d565b6020604051808303816000875af11580156103f6573d6000803e3d6000fd5b505050506040513d601f19601f8201168201806040525081019061041a9190611d7e565b5081600a60008154811061043157610430611cee565b5b90600052602060002090600302016000015461044d9190611dab565b600a60008154811061046257610461611cee565b5b9060005260206000209060030201600001819055505b60028314156106085760006004546005546003548463ffffffff1661049d9190611dab565b6104a79190611dab565b600a6001815481106104bc576104bb611cee565b5b9060005260206000209060030201600001546104d89190611ddf565b6104e29190611e39565b905080831115610527576040517f08c379a000000000000000000000000000000000000000000000000000000000815260040161051e90611eb6565b60405180910390fd5b8473ffffffffffffffffffffffffffffffffffffffff1663a9059cbb33856040518363ffffffff1660e01b8152600401610562929190611d1d565b6020604051808303816000875af1158015610581573d6000803e3d6000fd5b505050506040513d601f19601f820116820180604052508101906105a59190611d7e565b5082600a6000815481106105bc576105bb611cee565b5b9060005260206000209060030201600001546105d89190611dab565b600a6000815481106105ed576105ec611cee565b5b906000526020600020906003020160000181905550506107ad565b60038314156107ac576000601e6004546005546003548563ffffffff1661062f9190611dab565b6106399190611dab565b6106439190611e39565b600a60018154811061065857610657611cee565b5b9060005260206000209060030201600001546106749190611ddf565b61067e9190611ddf565b9050808311156106c3576040517f08c379a00000000000000000000000000000000000000000000000000000000081526004016106ba90611eb6565b60405180910390fd5b8473ffffffffffffffffffffffffffffffffffffffff1663a9059cbb33856040518363ffffffff1660e01b81526004016106fe929190611d1d565b6020604051808303816000875af115801561071d573d6000803e3d6000fd5b505050506040513d601f19601f820116820180604052508101906107419190611d7e565b5061074e85303386611381565b82600a60008154811061076457610763611cee565b5b9060005260206000209060030201600001546107809190611dab565b600a60008154811061079557610794611cee565b5b906000526020600020906003020160000181905550505b5b50505050565b60035481565b600b5481565b62278d00816107ce9190611ddf565b60058190555062278d00826107e39190611ddf565b6004819055506001871415610879576040518060400160405280601381526020017f66697865642065786368616e67652072617465000000000000000000000000008152506006600089815260200190815260200160002060000190805190602001906108519291906114ba565b5085600660008981526020019081526020016000206001018190555085600b819055506109bb565b60028714156109ba576040518060600160405280602281526020016121ba60229139600790805190602001906108b09291906114ba565b5060018514156109195760096000815481106108cf576108ce611cee565b5b90600052602060002090600502016003015460086000815481106108f6576108f5611cee565b5b9060005260206000209060050201600301546109129190611e39565b600b819055505b600285141561095b5782600860008154811061093857610937611cee565b5b9060005260206000209060050201600301546109549190611e39565b600b819055505b600385141561099d57600960008154811061097957610978611cee565b5b906000526020600020906005020160030154846109969190611e39565b600b819055505b60048514156109b95782846109b29190611e39565b600b819055505b5b5b7f7a3e17dceb39028a667ad0013e0a60762cd0266df2e664d62a275fc3ce71b2688683836040516109ee93929190611ed6565b60405180910390a150505050505050565b600a8181548110610a0f57600080fd5b90600052602060002090600302016000915090508060000154908060010160009054906101000a900473ffffffffffffffffffffffffffffffffffffffff16908060020154905083565b600064010000000042610a6c9190611ba6565b90508063ffffffff166003819055506009600081548110610a9057610a8f611cee565b5b9060005260206000209060050201600401548210610ae3576040517f08c379a0000000000000000000000000000000000000000000000000000000008152600401610ada90611f59565b60405180910390fd5b610aef83333085611381565b600060405180606001604052808481526020013373ffffffffffffffffffffffffffffffffffffffff1681526020018363ffffffff168152509050600a8190806001815401808255809150506001900390600052602060002090600302016000909190919091506000820151816000015560208201518160010160006101000a81548173ffffffffffffffffffffffffffffffffffffffff021916908373ffffffffffffffffffffffffffffffffffffffff1602179055506040820151816002015550507fe1fffcc4923d04b559f4d29a8bfc6cda04eb5b0d3c460751c2402c5c5cc9109c8484604051610be4929190611d1d565b60405180910390a150505050565b60018054610bff90611fa8565b80601f0160208091040260200160405190810160405280929190818152602001828054610c2b90611fa8565b8015610c785780601f10610c4d57610100808354040283529160200191610c78565b820191906000526020600020905b815481529060010190602001808311610c5b57829003601f168201915b505050505081565b60008054610c8d90611fa8565b80601f0160208091040260200160405190810160405280929190818152602001828054610cb990611fa8565b8015610d065780601f10610cdb57610100808354040283529160200191610d06565b820191906000526020600020905b815481529060010190602001808311610ce957829003601f168201915b505050505081565b60055481565b60045481565b60088181548110610d2a57600080fd5b90600052602060002090600502016000915090508060000160009054906101000a900473ffffffffffffffffffffffffffffffffffffffff1690806001018054610d7390611fa8565b80601f0160208091040260200160405190810160405280929190818152602001828054610d9f90611fa8565b8015610dec5780601f10610dc157610100808354040283529160200191610dec565b820191906000526020600020905b815481529060010190602001808311610dcf57829003601f168201915b505050505090806002018054610e0190611fa8565b80601f0160208091040260200160405190810160405280929190818152602001828054610e2d90611fa8565b8015610e7a5780601f10610e4f57610100808354040283529160200191610e7a565b820191906000526020600020905b815481529060010190602001808311610e5d57829003601f168201915b5050505050908060030154908060040154905085565b60078054610e9d90611fa8565b80601f0160208091040260200160405190810160405280929190818152602001828054610ec990611fa8565b8015610f165780601f10610eeb57610100808354040283529160200191610f16565b820191906000526020600020905b815481529060010190602001808311610ef957829003601f168201915b505050505081565b60098181548110610f2e57600080fd5b90600052602060002090600502016000915090508060000160009054906101000a900473ffffffffffffffffffffffffffffffffffffffff1690806001018054610f7790611fa8565b80601f0160208091040260200160405190810160405280929190818152602001828054610fa390611fa8565b8015610ff05780601f10610fc557610100808354040283529160200191610ff0565b820191906000526020600020905b815481529060010190602001808311610fd357829003601f168201915b50505050509080600201805461100590611fa8565b80601f016020809104026020016040519081016040528092919081815260200182805461103190611fa8565b801561107e5780601f106110535761010080835404028352916020019161107e565b820191906000526020600020905b81548152906001019060200180831161106157829003601f168201915b5050505050908060030154908060040154905085565b600280546110a190611fa8565b80601f01602080910402602001604051908101604052809291908181526020018280546110cd90611fa8565b801561111a5780601f106110ef5761010080835404028352916020019161111a565b820191906000526020600020905b8154815290600101906020018083116110fd57829003601f168201915b505050505081565b60006040518060a001604052808c73ffffffffffffffffffffffffffffffffffffffff1681526020018b81526020018a8152602001898152602001888152509050600881908060018154018082558091505060019003906000526020600020906005020160009091909190915060008201518160000160006101000a81548173ffffffffffffffffffffffffffffffffffffffff021916908373ffffffffffffffffffffffffffffffffffffffff16021790555060208201518160010190805190602001906111f29291906114ba565b50604082015181600201908051906020019061120f9291906114ba565b506060820151816003015560808201518160040155505060006040518060a001604052808873ffffffffffffffffffffffffffffffffffffffff168152602001878152602001868152602001858152602001848152509050600981908060018154018082558091505060019003906000526020600020906005020160009091909190915060008201518160000160006101000a81548173ffffffffffffffffffffffffffffffffffffffff021916908373ffffffffffffffffffffffffffffffffffffffff16021790555060208201518160010190805190602001906112f69291906114ba565b5060408201518160020190805190602001906113139291906114ba565b50606082015181600301556080820151816004015550507f8b14a41790ce5676fd24c8742d1fb5f2f36679e501d582df4ce403b299483c498c8c8c8c8c8c8c8c8c8c60405161136b9a99989796959493929190611fda565b60405180910390a1505050505050505050505050565b6000808573ffffffffffffffffffffffffffffffffffffffff166323b872dd8686866040516024016113b593929190612092565b6040516020818303038152906040529060e01b6020820180517bffffffffffffffffffffffffffffffffffffffffffffffffffffffff83818316178352505050506040516114039190612110565b6000604051808303816000865af19150503d8060008114611440576040519150601f19603f3d011682016040523d82523d6000602084013e611445565b606091505b509150915081801561147357506000815114806114725750808060200190518101906114719190611d7e565b5b5b6114b2576040517f08c379a00000000000000000000000000000000000000000000000000000000081526004016114a990612199565b60405180910390fd5b505050505050565b8280546114c690611fa8565b90600052602060002090601f0160209004810192826114e8576000855561152f565b82601f1061150157805160ff191683800117855561152f565b8280016001018555821561152f579182015b8281111561152e578251825591602001919060010190611513565b5b50905061153c9190611540565b5090565b5b80821115611559576000816000905550600101611541565b5090565b6000604051905090565b600080fd5b600080fd5b600073ffffffffffffffffffffffffffffffffffffffff82169050919050565b600061159c82611571565b9050919050565b6115ac81611591565b81146115b757600080fd5b50565b6000813590506115c9816115a3565b92915050565b6000819050919050565b6115e2816115cf565b81146115ed57600080fd5b50565b6000813590506115ff816115d9565b92915050565b60008060006060848603121561161e5761161d611567565b5b600061162c868287016115ba565b935050602061163d868287016115f0565b925050604061164e868287016115f0565b9150509250925092565b611661816115cf565b82525050565b600060208201905061167c6000830184611658565b92915050565b600080600080600080600060e0888a0312156116a1576116a0611567565b5b60006116af8a828b016115f0565b97505060206116c08a828b016115f0565b96505060406116d18a828b016115f0565b95505060606116e28a828b016115f0565b94505060806116f38a828b016115f0565b93505060a06117048a828b016115f0565b92505060c06117158a828b016115f0565b91505092959891949750929550565b60006020828403121561173a57611739611567565b5b6000611748848285016115f0565b91505092915050565b61175a81611591565b82525050565b60006060820190506117756000830186611658565b6117826020830185611751565b61178f6040830184611658565b949350505050565b600080604083850312156117ae576117ad611567565b5b60006117bc858286016115ba565b92505060206117cd858286016115f0565b9150509250929050565b600081519050919050565b600082825260208201905092915050565b60005b838110156118115780820151818401526020810190506117f6565b83811115611820576000848401525b50505050565b6000601f19601f8301169050919050565b6000611842826117d7565b61184c81856117e2565b935061185c8185602086016117f3565b61186581611826565b840191505092915050565b6000602082019050818103600083015261188a8184611837565b905092915050565b600060a0820190506118a76000830188611751565b81810360208301526118b98187611837565b905081810360408301526118cd8186611837565b90506118dc6060830185611658565b6118e96080830184611658565b9695505050505050565b600080fd5b600080fd5b7f4e487b7100000000000000000000000000000000000000000000000000000000600052604160045260246000fd5b61193582611826565b810181811067ffffffffffffffff82111715611954576119536118fd565b5b80604052505050565b600061196761155d565b9050611973828261192c565b919050565b600067ffffffffffffffff821115611993576119926118fd565b5b61199c82611826565b9050602081019050919050565b82818337600083830152505050565b60006119cb6119c684611978565b61195d565b9050828152602081018484840111156119e7576119e66118f8565b5b6119f28482856119a9565b509392505050565b600082601f830112611a0f57611a0e6118f3565b5b8135611a1f8482602086016119b8565b91505092915050565b6000806000806000806000806000806101408b8d031215611a4c57611a4b611567565b5b6000611a5a8d828e016115ba565b9a505060208b013567ffffffffffffffff811115611a7b57611a7a61156c565b5b611a878d828e016119fa565b99505060408b013567ffffffffffffffff811115611aa857611aa761156c565b5b611ab48d828e016119fa565b9850506060611ac58d828e016115f0565b9750506080611ad68d828e016115f0565b96505060a0611ae78d828e016115ba565b95505060c08b013567ffffffffffffffff811115611b0857611b0761156c565b5b611b148d828e016119fa565b94505060e08b013567ffffffffffffffff811115611b3557611b3461156c565b5b611b418d828e016119fa565b935050610100611b538d828e016115f0565b925050610120611b658d828e016115f0565b9150509295989b9194979a5092959850565b7f4e487b7100000000000000000000000000000000000000000000000000000000600052601260045260246000fd5b6000611bb1826115cf565b9150611bbc836115cf565b925082611bcc57611bcb611b77565b5b828206905092915050565b7f4e487b7100000000000000000000000000000000000000000000000000000000600052601160045260246000fd5b6000611c11826115cf565b9150611c1c836115cf565b9250827fffffffffffffffffffffffffffffffffffffffffffffffffffffffffffffffff03821115611c5157611c50611bd7565b5b828201905092915050565b7f436f6d706c657465207365616c696e6720706572696f642063616e206e6f742060008201527f6265206578747261637465640000000000000000000000000000000000000000602082015250565b6000611cb8602c836117e2565b9150611cc382611c5c565b604082019050919050565b60006020820190508181036000830152611ce781611cab565b9050919050565b7f4e487b7100000000000000000000000000000000000000000000000000000000600052603260045260246000fd5b6000604082019050611d326000830185611751565b611d3f6020830184611658565b9392505050565b60008115159050919050565b611d5b81611d46565b8114611d6657600080fd5b50565b600081519050611d7881611d52565b92915050565b600060208284031215611d9457611d93611567565b5b6000611da284828501611d69565b91505092915050565b6000611db6826115cf565b9150611dc1836115cf565b925082821015611dd457611dd3611bd7565b5b828203905092915050565b6000611dea826115cf565b9150611df5836115cf565b9250817fffffffffffffffffffffffffffffffffffffffffffffffffffffffffffffffff0483118215151615611e2e57611e2d611bd7565b5b828202905092915050565b6000611e44826115cf565b9150611e4f836115cf565b925082611e5f57611e5e611b77565b5b828204905092915050565b7f6578636573732072656c65617365206c696d6974000000000000000000000000600082015250565b6000611ea06014836117e2565b9150611eab82611e6a565b602082019050919050565b60006020820190508181036000830152611ecf81611e93565b9050919050565b6000606082019050611eeb6000830186611658565b611ef86020830185611658565b611f056040830184611658565b949350505050565b7f6f7665722063697263756c6174696f6e00000000000000000000000000000000600082015250565b6000611f436010836117e2565b9150611f4e82611f0d565b602082019050919050565b60006020820190508181036000830152611f7281611f36565b9050919050565b7f4e487b7100000000000000000000000000000000000000000000000000000000600052602260045260246000fd5b60006002820490506001821680611fc057607f821691505b60208210811415611fd457611fd3611f79565b5b50919050565b600061014082019050611ff0600083018d611751565b8181036020830152612002818c611837565b90508181036040830152612016818b611837565b9050612025606083018a611658565b6120326080830189611658565b61203f60a0830188611751565b81810360c08301526120518187611837565b905081810360e08301526120658186611837565b9050612075610100830185611658565b612083610120830184611658565b9b9a5050505050505050505050565b60006060820190506120a76000830186611751565b6120b46020830185611751565b6120c16040830184611658565b949350505050565b600081519050919050565b600081905092915050565b60006120ea826120c9565b6120f481856120d4565b93506121048185602086016117f3565b80840191505092915050565b600061211c82846120df565b915081905092915050565b7f5472616e7366657248656c7065723a205452414e534645525f46524f4d5f464160008201527f494c454400000000000000000000000000000000000000000000000000000000602082015250565b60006121836024836117e2565b915061218e82612127565b604082019050919050565b600060208201905081810360008301526121b281612176565b905091905056fe7468652065786368616e67652072617465206f662061677265656420616d6f756e74a2646970667358221220e9e6b91d17b2253d67db14bb07e9f96ae14746a28f68e13d98784f3fe0e20b5a64736f6c634300080b0033",
			"opcodes": "PUSH1 0x80 PUSH1 0x40 MSTORE CALLVALUE DUP1 ISZERO PUSH3 0x11 JUMPI PUSH1 0x0 DUP1 REVERT JUMPDEST POP PUSH1 0x40 MLOAD PUSH3 0x2617 CODESIZE SUB DUP1 PUSH3 0x2617 DUP4 CODECOPY DUP2 DUP2 ADD PUSH1 0x40 MSTORE DUP2 ADD SWAP1 PUSH3 0x37 SWAP2 SWAP1 PUSH3 0x2D8 JUMP JUMPDEST DUP3 PUSH1 0x0 SWAP1 DUP1 MLOAD SWAP1 PUSH1 0x20 ADD SWAP1 PUSH3 0x4F SWAP3 SWAP2 SWAP1 PUSH3 0x8B JUMP JUMPDEST POP DUP2 PUSH1 0x1 SWAP1 DUP1 MLOAD SWAP1 PUSH1 0x20 ADD SWAP1 PUSH3 0x68 SWAP3 SWAP2 SWAP1 PUSH3 0x8B JUMP JUMPDEST POP DUP1 PUSH1 0x2 SWAP1 DUP1 MLOAD SWAP1 PUSH1 0x20 ADD SWAP1 PUSH3 0x81 SWAP3 SWAP2 SWAP1 PUSH3 0x8B JUMP JUMPDEST POP POP POP POP PUSH3 0x3F6 JUMP JUMPDEST DUP3 DUP1 SLOAD PUSH3 0x99 SWAP1 PUSH3 0x3C0 JUMP JUMPDEST SWAP1 PUSH1 0x0 MSTORE PUSH1 0x20 PUSH1 0x0 KECCAK256 SWAP1 PUSH1 0x1F ADD PUSH1 0x20 SWAP1 DIV DUP2 ADD SWAP3 DUP3 PUSH3 0xBD JUMPI PUSH1 0x0 DUP6 SSTORE PUSH3 0x109 JUMP JUMPDEST DUP3 PUSH1 0x1F LT PUSH3 0xD8 JUMPI DUP1 MLOAD PUSH1 0xFF NOT AND DUP4 DUP1 ADD OR DUP6 SSTORE PUSH3 0x109 JUMP JUMPDEST DUP3 DUP1 ADD PUSH1 0x1 ADD DUP6 SSTORE DUP3 ISZERO PUSH3 0x109 JUMPI SWAP2 DUP3 ADD JUMPDEST DUP3 DUP2 GT ISZERO PUSH3 0x108 JUMPI DUP3 MLOAD DUP3 SSTORE SWAP2 PUSH1 0x20 ADD SWAP2 SWAP1 PUSH1 0x1 ADD SWAP1 PUSH3 0xEB JUMP JUMPDEST JUMPDEST POP SWAP1 POP PUSH3 0x118 SWAP2 SWAP1 PUSH3 0x11C JUMP JUMPDEST POP SWAP1 JUMP JUMPDEST JUMPDEST DUP1 DUP3 GT ISZERO PUSH3 0x137 JUMPI PUSH1 0x0 DUP2 PUSH1 0x0 SWAP1 SSTORE POP PUSH1 0x1 ADD PUSH3 0x11D JUMP JUMPDEST POP SWAP1 JUMP JUMPDEST PUSH1 0x0 PUSH1 0x40 MLOAD SWAP1 POP SWAP1 JUMP JUMPDEST PUSH1 0x0 DUP1 REVERT JUMPDEST PUSH1 0x0 DUP1 REVERT JUMPDEST PUSH1 0x0 DUP1 REVERT JUMPDEST PUSH1 0x0 DUP1 REVERT JUMPDEST PUSH1 0x0 PUSH1 0x1F NOT PUSH1 0x1F DUP4 ADD AND SWAP1 POP SWAP2 SWAP1 POP JUMP JUMPDEST PUSH32 0x4E487B7100000000000000000000000000000000000000000000000000000000 PUSH1 0x0 MSTORE PUSH1 0x41 PUSH1 0x4 MSTORE PUSH1 0x24 PUSH1 0x0 REVERT JUMPDEST PUSH3 0x1A4 DUP3 PUSH3 0x159 JUMP JUMPDEST DUP2 ADD DUP2 DUP2 LT PUSH8 0xFFFFFFFFFFFFFFFF DUP3 GT OR ISZERO PUSH3 0x1C6 JUMPI PUSH3 0x1C5 PUSH3 0x16A JUMP JUMPDEST JUMPDEST DUP1 PUSH1 0x40 MSTORE POP POP POP JUMP JUMPDEST PUSH1 0x0 PUSH3 0x1DB PUSH3 0x13B JUMP JUMPDEST SWAP1 POP PUSH3 0x1E9 DUP3 DUP3 PUSH3 0x199 JUMP JUMPDEST SWAP2 SWAP1 POP JUMP JUMPDEST PUSH1 0x0 PUSH8 0xFFFFFFFFFFFFFFFF DUP3 GT ISZERO PUSH3 0x20C JUMPI PUSH3 0x20B PUSH3 0x16A JUMP JUMPDEST JUMPDEST PUSH3 0x217 DUP3 PUSH3 0x159 JUMP JUMPDEST SWAP1 POP PUSH1 0x20 DUP2 ADD SWAP1 POP SWAP2 SWAP1 POP JUMP JUMPDEST PUSH1 0x0 JUMPDEST DUP4 DUP2 LT ISZERO PUSH3 0x244 JUMPI DUP1 DUP3 ADD MLOAD DUP2 DUP5 ADD MSTORE PUSH1 0x20 DUP2 ADD SWAP1 POP PUSH3 0x227 JUMP JUMPDEST DUP4 DUP2 GT ISZERO PUSH3 0x254 JUMPI PUSH1 0x0 DUP5 DUP5 ADD MSTORE JUMPDEST POP POP POP POP JUMP JUMPDEST PUSH1 0x0 PUSH3 0x271 PUSH3 0x26B DUP5 PUSH3 0x1EE JUMP JUMPDEST PUSH3 0x1CF JUMP JUMPDEST SWAP1 POP DUP3 DUP2 MSTORE PUSH1 0x20 DUP2 ADD DUP5 DUP5 DUP5 ADD GT ISZERO PUSH3 0x290 JUMPI PUSH3 0x28F PUSH3 0x154 JUMP JUMPDEST JUMPDEST PUSH3 0x29D DUP5 DUP3 DUP6 PUSH3 0x224 JUMP JUMPDEST POP SWAP4 SWAP3 POP POP POP JUMP JUMPDEST PUSH1 0x0 DUP3 PUSH1 0x1F DUP4 ADD SLT PUSH3 0x2BD JUMPI PUSH3 0x2BC PUSH3 0x14F JUMP JUMPDEST JUMPDEST DUP2 MLOAD PUSH3 0x2CF DUP5 DUP3 PUSH1 0x20 DUP7 ADD PUSH3 0x25A JUMP JUMPDEST SWAP2 POP POP SWAP3 SWAP2 POP POP JUMP JUMPDEST PUSH1 0x0 DUP1 PUSH1 0x0 PUSH1 0x60 DUP5 DUP7 SUB SLT ISZERO PUSH3 0x2F4 JUMPI PUSH3 0x2F3 PUSH3 0x145 JUMP JUMPDEST JUMPDEST PUSH1 0x0 DUP5 ADD MLOAD PUSH8 0xFFFFFFFFFFFFFFFF DUP2 GT ISZERO PUSH3 0x315 JUMPI PUSH3 0x314 PUSH3 0x14A JUMP JUMPDEST JUMPDEST PUSH3 0x323 DUP7 DUP3 DUP8 ADD PUSH3 0x2A5 JUMP JUMPDEST SWAP4 POP POP PUSH1 0x20 DUP5 ADD MLOAD PUSH8 0xFFFFFFFFFFFFFFFF DUP2 GT ISZERO PUSH3 0x347 JUMPI PUSH3 0x346 PUSH3 0x14A JUMP JUMPDEST JUMPDEST PUSH3 0x355 DUP7 DUP3 DUP8 ADD PUSH3 0x2A5 JUMP JUMPDEST SWAP3 POP POP PUSH1 0x40 DUP5 ADD MLOAD PUSH8 0xFFFFFFFFFFFFFFFF DUP2 GT ISZERO PUSH3 0x379 JUMPI PUSH3 0x378 PUSH3 0x14A JUMP JUMPDEST JUMPDEST PUSH3 0x387 DUP7 DUP3 DUP8 ADD PUSH3 0x2A5 JUMP JUMPDEST SWAP2 POP POP SWAP3 POP SWAP3 POP SWAP3 JUMP JUMPDEST PUSH32 0x4E487B7100000000000000000000000000000000000000000000000000000000 PUSH1 0x0 MSTORE PUSH1 0x22 PUSH1 0x4 MSTORE PUSH1 0x24 PUSH1 0x0 REVERT JUMPDEST PUSH1 0x0 PUSH1 0x2 DUP3 DIV SWAP1 POP PUSH1 0x1 DUP3 AND DUP1 PUSH3 0x3D9 JUMPI PUSH1 0x7F DUP3 AND SWAP2 POP JUMPDEST PUSH1 0x20 DUP3 LT DUP2 EQ ISZERO PUSH3 0x3F0 JUMPI PUSH3 0x3EF PUSH3 0x391 JUMP JUMPDEST JUMPDEST POP SWAP2 SWAP1 POP JUMP JUMPDEST PUSH2 0x2211 DUP1 PUSH3 0x406 PUSH1 0x0 CODECOPY PUSH1 0x0 RETURN INVALID PUSH1 0x80 PUSH1 0x40 MSTORE CALLVALUE DUP1 ISZERO PUSH2 0x10 JUMPI PUSH1 0x0 DUP1 REVERT JUMPDEST POP PUSH1 0x4 CALLDATASIZE LT PUSH2 0xF5 JUMPI PUSH1 0x0 CALLDATALOAD PUSH1 0xE0 SHR DUP1 PUSH4 0x4EF4E387 GT PUSH2 0x97 JUMPI DUP1 PUSH4 0x9B2627C8 GT PUSH2 0x66 JUMPI DUP1 PUSH4 0x9B2627C8 EQ PUSH2 0x268 JUMPI DUP1 PUSH4 0xC4C38901 EQ PUSH2 0x286 JUMPI DUP1 PUSH4 0xDB19EEB0 EQ PUSH2 0x2BA JUMPI DUP1 PUSH4 0xE4E79A0C EQ PUSH2 0x2D8 JUMPI PUSH2 0xF5 JUMP JUMPDEST DUP1 PUSH4 0x4EF4E387 EQ PUSH2 0x1DA JUMPI DUP1 PUSH4 0x507A7328 EQ PUSH2 0x1F8 JUMPI DUP1 PUSH4 0x63EF1627 EQ PUSH2 0x216 JUMPI DUP1 PUSH4 0x67ED729B EQ PUSH2 0x234 JUMPI PUSH2 0xF5 JUMP JUMPDEST DUP1 PUSH4 0x3D8B08CC GT PUSH2 0xD3 JUMPI DUP1 PUSH4 0x3D8B08CC EQ PUSH2 0x152 JUMPI DUP1 PUSH4 0x4262EE4B EQ PUSH2 0x16E JUMPI DUP1 PUSH4 0x47E7EF24 EQ PUSH2 0x1A0 JUMPI DUP1 PUSH4 0x4D93FB3C EQ PUSH2 0x1BC JUMPI PUSH2 0xF5 JUMP JUMPDEST DUP1 PUSH4 0xDFD9D9C EQ PUSH2 0xFA JUMPI DUP1 PUSH4 0x16ADA547 EQ PUSH2 0x116 JUMPI DUP1 PUSH4 0x2C4E722E EQ PUSH2 0x134 JUMPI JUMPDEST PUSH1 0x0 DUP1 REVERT JUMPDEST PUSH2 0x114 PUSH1 0x4 DUP1 CALLDATASIZE SUB DUP2 ADD SWAP1 PUSH2 0x10F SWAP2 SWAP1 PUSH2 0x1605 JUMP JUMPDEST PUSH2 0x2F4 JUMP JUMPDEST STOP JUMPDEST PUSH2 0x11E PUSH2 0x7B3 JUMP JUMPDEST PUSH1 0x40 MLOAD PUSH2 0x12B SWAP2 SWAP1 PUSH2 0x1667 JUMP JUMPDEST PUSH1 0x40 MLOAD DUP1 SWAP2 SUB SWAP1 RETURN JUMPDEST PUSH2 0x13C PUSH2 0x7B9 JUMP JUMPDEST PUSH1 0x40 MLOAD PUSH2 0x149 SWAP2 SWAP1 PUSH2 0x1667 JUMP JUMPDEST PUSH1 0x40 MLOAD DUP1 SWAP2 SUB SWAP1 RETURN JUMPDEST PUSH2 0x16C PUSH1 0x4 DUP1 CALLDATASIZE SUB DUP2 ADD SWAP1 PUSH2 0x167 SWAP2 SWAP1 PUSH2 0x1682 JUMP JUMPDEST PUSH2 0x7BF JUMP JUMPDEST STOP JUMPDEST PUSH2 0x188 PUSH1 0x4 DUP1 CALLDATASIZE SUB DUP2 ADD SWAP1 PUSH2 0x183 SWAP2 SWAP1 PUSH2 0x1724 JUMP JUMPDEST PUSH2 0x9FF JUMP JUMPDEST PUSH1 0x40 MLOAD PUSH2 0x197 SWAP4 SWAP3 SWAP2 SWAP1 PUSH2 0x1760 JUMP JUMPDEST PUSH1 0x40 MLOAD DUP1 SWAP2 SUB SWAP1 RETURN JUMPDEST PUSH2 0x1BA PUSH1 0x4 DUP1 CALLDATASIZE SUB DUP2 ADD SWAP1 PUSH2 0x1B5 SWAP2 SWAP1 PUSH2 0x1797 JUMP JUMPDEST PUSH2 0xA59 JUMP JUMPDEST STOP JUMPDEST PUSH2 0x1C4 PUSH2 0xBF2 JUMP JUMPDEST PUSH1 0x40 MLOAD PUSH2 0x1D1 SWAP2 SWAP1 PUSH2 0x1870 JUMP JUMPDEST PUSH1 0x40 MLOAD DUP1 SWAP2 SUB SWAP1 RETURN JUMPDEST PUSH2 0x1E2 PUSH2 0xC80 JUMP JUMPDEST PUSH1 0x40 MLOAD PUSH2 0x1EF SWAP2 SWAP1 PUSH2 0x1870 JUMP JUMPDEST PUSH1 0x40 MLOAD DUP1 SWAP2 SUB SWAP1 RETURN JUMPDEST PUSH2 0x200 PUSH2 0xD0E JUMP JUMPDEST PUSH1 0x40 MLOAD PUSH2 0x20D SWAP2 SWAP1 PUSH2 0x1667 JUMP JUMPDEST PUSH1 0x40 MLOAD DUP1 SWAP2 SUB SWAP1 RETURN JUMPDEST PUSH2 0x21E PUSH2 0xD14 JUMP JUMPDEST PUSH1 0x40 MLOAD PUSH2 0x22B SWAP2 SWAP1 PUSH2 0x1667 JUMP JUMPDEST PUSH1 0x40 MLOAD DUP1 SWAP2 SUB SWAP1 RETURN JUMPDEST PUSH2 0x24E PUSH1 0x4 DUP1 CALLDATASIZE SUB DUP2 ADD SWAP1 PUSH2 0x249 SWAP2 SWAP1 PUSH2 0x1724 JUMP JUMPDEST PUSH2 0xD1A JUMP JUMPDEST PUSH1 0x40 MLOAD PUSH2 0x25F SWAP6 SWAP5 SWAP4 SWAP3 SWAP2 SWAP1 PUSH2 0x1892 JUMP JUMPDEST PUSH1 0x40 MLOAD DUP1 SWAP2 SUB SWAP1 RETURN JUMPDEST PUSH2 0x270 PUSH2 0xE90 JUMP JUMPDEST PUSH1 0x40 MLOAD PUSH2 0x27D SWAP2 SWAP1 PUSH2 0x1870 JUMP JUMPDEST PUSH1 0x40 MLOAD DUP1 SWAP2 SUB SWAP1 RETURN JUMPDEST PUSH2 0x2A0 PUSH1 0x4 DUP1 CALLDATASIZE SUB DUP2 ADD SWAP1 PUSH2 0x29B SWAP2 SWAP1 PUSH2 0x1724 JUMP JUMPDEST PUSH2 0xF1E JUMP JUMPDEST PUSH1 0x40 MLOAD PUSH2 0x2B1 SWAP6 SWAP5 SWAP4 SWAP3 SWAP2 SWAP1 PUSH2 0x1892 JUMP JUMPDEST PUSH1 0x40 MLOAD DUP1 SWAP2 SUB SWAP1 RETURN JUMPDEST PUSH2 0x2C2 PUSH2 0x1094 JUMP JUMPDEST PUSH1 0x40 MLOAD PUSH2 0x2CF SWAP2 SWAP1 PUSH2 0x1870 JUMP JUMPDEST PUSH1 0x40 MLOAD DUP1 SWAP2 SUB SWAP1 RETURN JUMPDEST PUSH2 0x2F2 PUSH1 0x4 DUP1 CALLDATASIZE SUB DUP2 ADD SWAP1 PUSH2 0x2ED SWAP2 SWAP1 PUSH2 0x1A28 JUMP JUMPDEST PUSH2 0x1122 JUMP JUMPDEST STOP JUMPDEST PUSH1 0x0 PUSH5 0x100000000 TIMESTAMP PUSH2 0x307 SWAP2 SWAP1 PUSH2 0x1BA6 JUMP JUMPDEST SWAP1 POP PUSH1 0x5 SLOAD PUSH1 0x3 SLOAD PUSH2 0x319 SWAP2 SWAP1 PUSH2 0x1C06 JUMP JUMPDEST DUP2 PUSH4 0xFFFFFFFF AND GT PUSH2 0x360 JUMPI PUSH1 0x40 MLOAD PUSH32 0x8C379A000000000000000000000000000000000000000000000000000000000 DUP2 MSTORE PUSH1 0x4 ADD PUSH2 0x357 SWAP1 PUSH2 0x1CCE JUMP JUMPDEST PUSH1 0x40 MLOAD DUP1 SWAP2 SUB SWAP1 REVERT JUMPDEST PUSH1 0xA PUSH1 0x0 DUP2 SLOAD DUP2 LT PUSH2 0x375 JUMPI PUSH2 0x374 PUSH2 0x1CEE JUMP JUMPDEST JUMPDEST SWAP1 PUSH1 0x0 MSTORE PUSH1 0x20 PUSH1 0x0 KECCAK256 SWAP1 PUSH1 0x3 MUL ADD PUSH1 0x0 ADD SLOAD DUP3 GT ISZERO PUSH2 0x393 JUMPI PUSH1 0x0 DUP1 REVERT JUMPDEST PUSH1 0x1 DUP4 EQ ISZERO PUSH2 0x478 JUMPI DUP4 PUSH20 0xFFFFFFFFFFFFFFFFFFFFFFFFFFFFFFFFFFFFFFFF AND PUSH4 0xA9059CBB CALLER DUP5 PUSH1 0x40 MLOAD DUP4 PUSH4 0xFFFFFFFF AND PUSH1 0xE0 SHL DUP2 MSTORE PUSH1 0x4 ADD PUSH2 0x3D7 SWAP3 SWAP2 SWAP1 PUSH2 0x1D1D JUMP JUMPDEST PUSH1 0x20 PUSH1 0x40 MLOAD DUP1 DUP4 SUB DUP2 PUSH1 0x0 DUP8 GAS CALL ISZERO DUP1 ISZERO PUSH2 0x3F6 JUMPI RETURNDATASIZE PUSH1 0x0 DUP1 RETURNDATACOPY RETURNDATASIZE PUSH1 0x0 REVERT JUMPDEST POP POP POP POP PUSH1 0x40 MLOAD RETURNDATASIZE PUSH1 0x1F NOT PUSH1 0x1F DUP3 ADD AND DUP3 ADD DUP1 PUSH1 0x40 MSTORE POP DUP2 ADD SWAP1 PUSH2 0x41A SWAP2 SWAP1 PUSH2 0x1D7E JUMP JUMPDEST POP DUP2 PUSH1 0xA PUSH1 0x0 DUP2 SLOAD DUP2 LT PUSH2 0x431 JUMPI PUSH2 0x430 PUSH2 0x1CEE JUMP JUMPDEST JUMPDEST SWAP1 PUSH1 0x0 MSTORE PUSH1 0x20 PUSH1 0x0 KECCAK256 SWAP1 PUSH1 0x3 MUL ADD PUSH1 0x0 ADD SLOAD PUSH2 0x44D SWAP2 SWAP1 PUSH2 0x1DAB JUMP JUMPDEST PUSH1 0xA PUSH1 0x0 DUP2 SLOAD DUP2 LT PUSH2 0x462 JUMPI PUSH2 0x461 PUSH2 0x1CEE JUMP JUMPDEST JUMPDEST SWAP1 PUSH1 0x0 MSTORE PUSH1 0x20 PUSH1 0x0 KECCAK256 SWAP1 PUSH1 0x3 MUL ADD PUSH1 0x0 ADD DUP2 SWAP1 SSTORE POP JUMPDEST PUSH1 0x2 DUP4 EQ ISZERO PUSH2 0x608 JUMPI PUSH1 0x0 PUSH1 0x4 SLOAD PUSH1 0x5 SLOAD PUSH1 0x3 SLOAD DUP5 PUSH4 0xFFFFFFFF AND PUSH2 0x49D SWAP2 SWAP1 PUSH2 0x1DAB JUMP JUMPDEST PUSH2 0x4A7 SWAP2 SWAP1 PUSH2 0x1DAB JUMP JUMPDEST PUSH1 0xA PUSH1 0x1 DUP2 SLOAD DUP2 LT PUSH2 0x4BC JUMPI PUSH2 0x4BB PUSH2 0x1CEE JUMP JUMPDEST JUMPDEST SWAP1 PUSH1 0x0 MSTORE PUSH1 0x20 PUSH1 0x0 KECCAK256 SWAP1 PUSH1 0x3 MUL ADD PUSH1 0x0 ADD SLOAD PUSH2 0x4D8 SWAP2 SWAP1 PUSH2 0x1DDF JUMP JUMPDEST PUSH2 0x4E2 SWAP2 SWAP1 PUSH2 0x1E39 JUMP JUMPDEST SWAP1 POP DUP1 DUP4 GT ISZERO PUSH2 0x527 JUMPI PUSH1 0x40 MLOAD PUSH32 0x8C379A000000000000000000000000000000000000000000000000000000000 DUP2 MSTORE PUSH1 0x4 ADD PUSH2 0x51E SWAP1 PUSH2 0x1EB6 JUMP JUMPDEST PUSH1 0x40 MLOAD DUP1 SWAP2 SUB SWAP1 REVERT JUMPDEST DUP5 PUSH20 0xFFFFFFFFFFFFFFFFFFFFFFFFFFFFFFFFFFFFFFFF AND PUSH4 0xA9059CBB CALLER DUP6 PUSH1 0x40 MLOAD DUP4 PUSH4 0xFFFFFFFF AND PUSH1 0xE0 SHL DUP2 MSTORE PUSH1 0x4 ADD PUSH2 0x562 SWAP3 SWAP2 SWAP1 PUSH2 0x1D1D JUMP JUMPDEST PUSH1 0x20 PUSH1 0x40 MLOAD DUP1 DUP4 SUB DUP2 PUSH1 0x0 DUP8 GAS CALL ISZERO DUP1 ISZERO PUSH2 0x581 JUMPI RETURNDATASIZE PUSH1 0x0 DUP1 RETURNDATACOPY RETURNDATASIZE PUSH1 0x0 REVERT JUMPDEST POP POP POP POP PUSH1 0x40 MLOAD RETURNDATASIZE PUSH1 0x1F NOT PUSH1 0x1F DUP3 ADD AND DUP3 ADD DUP1 PUSH1 0x40 MSTORE POP DUP2 ADD SWAP1 PUSH2 0x5A5 SWAP2 SWAP1 PUSH2 0x1D7E JUMP JUMPDEST POP DUP3 PUSH1 0xA PUSH1 0x0 DUP2 SLOAD DUP2 LT PUSH2 0x5BC JUMPI PUSH2 0x5BB PUSH2 0x1CEE JUMP JUMPDEST JUMPDEST SWAP1 PUSH1 0x0 MSTORE PUSH1 0x20 PUSH1 0x0 KECCAK256 SWAP1 PUSH1 0x3 MUL ADD PUSH1 0x0 ADD SLOAD PUSH2 0x5D8 SWAP2 SWAP1 PUSH2 0x1DAB JUMP JUMPDEST PUSH1 0xA PUSH1 0x0 DUP2 SLOAD DUP2 LT PUSH2 0x5ED JUMPI PUSH2 0x5EC PUSH2 0x1CEE JUMP JUMPDEST JUMPDEST SWAP1 PUSH1 0x0 MSTORE PUSH1 0x20 PUSH1 0x0 KECCAK256 SWAP1 PUSH1 0x3 MUL ADD PUSH1 0x0 ADD DUP2 SWAP1 SSTORE POP POP PUSH2 0x7AD JUMP JUMPDEST PUSH1 0x3 DUP4 EQ ISZERO PUSH2 0x7AC JUMPI PUSH1 0x0 PUSH1 0x1E PUSH1 0x4 SLOAD PUSH1 0x5 SLOAD PUSH1 0x3 SLOAD DUP6 PUSH4 0xFFFFFFFF AND PUSH2 0x62F SWAP2 SWAP1 PUSH2 0x1DAB JUMP JUMPDEST PUSH2 0x639 SWAP2 SWAP1 PUSH2 0x1DAB JUMP JUMPDEST PUSH2 0x643 SWAP2 SWAP1 PUSH2 0x1E39 JUMP JUMPDEST PUSH1 0xA PUSH1 0x1 DUP2 SLOAD DUP2 LT PUSH2 0x658 JUMPI PUSH2 0x657 PUSH2 0x1CEE JUMP JUMPDEST JUMPDEST SWAP1 PUSH1 0x0 MSTORE PUSH1 0x20 PUSH1 0x0 KECCAK256 SWAP1 PUSH1 0x3 MUL ADD PUSH1 0x0 ADD SLOAD PUSH2 0x674 SWAP2 SWAP1 PUSH2 0x1DDF JUMP JUMPDEST PUSH2 0x67E SWAP2 SWAP1 PUSH2 0x1DDF JUMP JUMPDEST SWAP1 POP DUP1 DUP4 GT ISZERO PUSH2 0x6C3 JUMPI PUSH1 0x40 MLOAD PUSH32 0x8C379A000000000000000000000000000000000000000000000000000000000 DUP2 MSTORE PUSH1 0x4 ADD PUSH2 0x6BA SWAP1 PUSH2 0x1EB6 JUMP JUMPDEST PUSH1 0x40 MLOAD DUP1 SWAP2 SUB SWAP1 REVERT JUMPDEST DUP5 PUSH20 0xFFFFFFFFFFFFFFFFFFFFFFFFFFFFFFFFFFFFFFFF AND PUSH4 0xA9059CBB CALLER DUP6 PUSH1 0x40 MLOAD DUP4 PUSH4 0xFFFFFFFF AND PUSH1 0xE0 SHL DUP2 MSTORE PUSH1 0x4 ADD PUSH2 0x6FE SWAP3 SWAP2 SWAP1 PUSH2 0x1D1D JUMP JUMPDEST PUSH1 0x20 PUSH1 0x40 MLOAD DUP1 DUP4 SUB DUP2 PUSH1 0x0 DUP8 GAS CALL ISZERO DUP1 ISZERO PUSH2 0x71D JUMPI RETURNDATASIZE PUSH1 0x0 DUP1 RETURNDATACOPY RETURNDATASIZE PUSH1 0x0 REVERT JUMPDEST POP POP POP POP PUSH1 0x40 MLOAD RETURNDATASIZE PUSH1 0x1F NOT PUSH1 0x1F DUP3 ADD AND DUP3 ADD DUP1 PUSH1 0x40 MSTORE POP DUP2 ADD SWAP1 PUSH2 0x741 SWAP2 SWAP1 PUSH2 0x1D7E JUMP JUMPDEST POP PUSH2 0x74E DUP6 ADDRESS CALLER DUP7 PUSH2 0x1381 JUMP JUMPDEST DUP3 PUSH1 0xA PUSH1 0x0 DUP2 SLOAD DUP2 LT PUSH2 0x764 JUMPI PUSH2 0x763 PUSH2 0x1CEE JUMP JUMPDEST JUMPDEST SWAP1 PUSH1 0x0 MSTORE PUSH1 0x20 PUSH1 0x0 KECCAK256 SWAP1 PUSH1 0x3 MUL ADD PUSH1 0x0 ADD SLOAD PUSH2 0x780 SWAP2 SWAP1 PUSH2 0x1DAB JUMP JUMPDEST PUSH1 0xA PUSH1 0x0 DUP2 SLOAD DUP2 LT PUSH2 0x795 JUMPI PUSH2 0x794 PUSH2 0x1CEE JUMP JUMPDEST JUMPDEST SWAP1 PUSH1 0x0 MSTORE PUSH1 0x20 PUSH1 0x0 KECCAK256 SWAP1 PUSH1 0x3 MUL ADD PUSH1 0x0 ADD DUP2 SWAP1 SSTORE POP POP JUMPDEST JUMPDEST POP POP POP POP JUMP JUMPDEST PUSH1 0x3 SLOAD DUP2 JUMP JUMPDEST PUSH1 0xB SLOAD DUP2 JUMP JUMPDEST PUSH3 0x278D00 DUP2 PUSH2 0x7CE SWAP2 SWAP1 PUSH2 0x1DDF JUMP JUMPDEST PUSH1 0x5 DUP2 SWAP1 SSTORE POP PUSH3 0x278D00 DUP3 PUSH2 0x7E3 SWAP2 SWAP1 PUSH2 0x1DDF JUMP JUMPDEST PUSH1 0x4 DUP2 SWAP1 SSTORE POP PUSH1 0x1 DUP8 EQ ISZERO PUSH2 0x879 JUMPI PUSH1 0x40 MLOAD DUP1 PUSH1 0x40 ADD PUSH1 0x40 MSTORE DUP1 PUSH1 0x13 DUP2 MSTORE PUSH1 0x20 ADD PUSH32 0x66697865642065786368616E6765207261746500000000000000000000000000 DUP2 MSTORE POP PUSH1 0x6 PUSH1 0x0 DUP10 DUP2 MSTORE PUSH1 0x20 ADD SWAP1 DUP2 MSTORE PUSH1 0x20 ADD PUSH1 0x0 KECCAK256 PUSH1 0x0 ADD SWAP1 DUP1 MLOAD SWAP1 PUSH1 0x20 ADD SWAP1 PUSH2 0x851 SWAP3 SWAP2 SWAP1 PUSH2 0x14BA JUMP JUMPDEST POP DUP6 PUSH1 0x6 PUSH1 0x0 DUP10 DUP2 MSTORE PUSH1 0x20 ADD SWAP1 DUP2 MSTORE PUSH1 0x20 ADD PUSH1 0x0 KECCAK256 PUSH1 0x1 ADD DUP2 SWAP1 SSTORE POP DUP6 PUSH1 0xB DUP2 SWAP1 SSTORE POP PUSH2 0x9BB JUMP JUMPDEST PUSH1 0x2 DUP8 EQ ISZERO PUSH2 0x9BA JUMPI PUSH1 0x40 MLOAD DUP1 PUSH1 0x60 ADD PUSH1 0x40 MSTORE DUP1 PUSH1 0x22 DUP2 MSTORE PUSH1 0x20 ADD PUSH2 0x21BA PUSH1 0x22 SWAP2 CODECOPY PUSH1 0x7 SWAP1 DUP1 MLOAD SWAP1 PUSH1 0x20 ADD SWAP1 PUSH2 0x8B0 SWAP3 SWAP2 SWAP1 PUSH2 0x14BA JUMP JUMPDEST POP PUSH1 0x1 DUP6 EQ ISZERO PUSH2 0x919 JUMPI PUSH1 0x9 PUSH1 0x0 DUP2 SLOAD DUP2 LT PUSH2 0x8CF JUMPI PUSH2 0x8CE PUSH2 0x1CEE JUMP JUMPDEST JUMPDEST SWAP1 PUSH1 0x0 MSTORE PUSH1 0x20 PUSH1 0x0 KECCAK256 SWAP1 PUSH1 0x5 MUL ADD PUSH1 0x3 ADD SLOAD PUSH1 0x8 PUSH1 0x0 DUP2 SLOAD DUP2 LT PUSH2 0x8F6 JUMPI PUSH2 0x8F5 PUSH2 0x1CEE JUMP JUMPDEST JUMPDEST SWAP1 PUSH1 0x0 MSTORE PUSH1 0x20 PUSH1 0x0 KECCAK256 SWAP1 PUSH1 0x5 MUL ADD PUSH1 0x3 ADD SLOAD PUSH2 0x912 SWAP2 SWAP1 PUSH2 0x1E39 JUMP JUMPDEST PUSH1 0xB DUP2 SWAP1 SSTORE POP JUMPDEST PUSH1 0x2 DUP6 EQ ISZERO PUSH2 0x95B JUMPI DUP3 PUSH1 0x8 PUSH1 0x0 DUP2 SLOAD DUP2 LT PUSH2 0x938 JUMPI PUSH2 0x937 PUSH2 0x1CEE JUMP JUMPDEST JUMPDEST SWAP1 PUSH1 0x0 MSTORE PUSH1 0x20 PUSH1 0x0 KECCAK256 SWAP1 PUSH1 0x5 MUL ADD PUSH1 0x3 ADD SLOAD PUSH2 0x954 SWAP2 SWAP1 PUSH2 0x1E39 JUMP JUMPDEST PUSH1 0xB DUP2 SWAP1 SSTORE POP JUMPDEST PUSH1 0x3 DUP6 EQ ISZERO PUSH2 0x99D JUMPI PUSH1 0x9 PUSH1 0x0 DUP2 SLOAD DUP2 LT PUSH2 0x979 JUMPI PUSH2 0x978 PUSH2 0x1CEE JUMP JUMPDEST JUMPDEST SWAP1 PUSH1 0x0 MSTORE PUSH1 0x20 PUSH1 0x0 KECCAK256 SWAP1 PUSH1 0x5 MUL ADD PUSH1 0x3 ADD SLOAD DUP5 PUSH2 0x996 SWAP2 SWAP1 PUSH2 0x1E39 JUMP JUMPDEST PUSH1 0xB DUP2 SWAP1 SSTORE POP JUMPDEST PUSH1 0x4 DUP6 EQ ISZERO PUSH2 0x9B9 JUMPI DUP3 DUP5 PUSH2 0x9B2 SWAP2 SWAP1 PUSH2 0x1E39 JUMP JUMPDEST PUSH1 0xB DUP2 SWAP1 SSTORE POP JUMPDEST JUMPDEST JUMPDEST PUSH32 0x7A3E17DCEB39028A667AD0013E0A60762CD0266DF2E664D62A275FC3CE71B268 DUP7 DUP4 DUP4 PUSH1 0x40 MLOAD PUSH2 0x9EE SWAP4 SWAP3 SWAP2 SWAP1 PUSH2 0x1ED6 JUMP JUMPDEST PUSH1 0x40 MLOAD DUP1 SWAP2 SUB SWAP1 LOG1 POP POP POP POP POP POP POP JUMP JUMPDEST PUSH1 0xA DUP2 DUP2 SLOAD DUP2 LT PUSH2 0xA0F JUMPI PUSH1 0x0 DUP1 REVERT JUMPDEST SWAP1 PUSH1 0x0 MSTORE PUSH1 0x20 PUSH1 0x0 KECCAK256 SWAP1 PUSH1 0x3 MUL ADD PUSH1 0x0 SWAP2 POP SWAP1 POP DUP1 PUSH1 0x0 ADD SLOAD SWAP1 DUP1 PUSH1 0x1 ADD PUSH1 0x0 SWAP1 SLOAD SWAP1 PUSH2 0x100 EXP SWAP1 DIV PUSH20 0xFFFFFFFFFFFFFFFFFFFFFFFFFFFFFFFFFFFFFFFF AND SWAP1 DUP1 PUSH1 0x2 ADD SLOAD SWAP1 POP DUP4 JUMP JUMPDEST PUSH1 0x0 PUSH5 0x100000000 TIMESTAMP PUSH2 0xA6C SWAP2 SWAP1 PUSH2 0x1BA6 JUMP JUMPDEST SWAP1 POP DUP1 PUSH4 0xFFFFFFFF AND PUSH1 0x3 DUP2 SWAP1 SSTORE POP PUSH1 0x9 PUSH1 0x0 DUP2 SLOAD DUP2 LT PUSH2 0xA90 JUMPI PUSH2 0xA8F PUSH2 0x1CEE JUMP JUMPDEST JUMPDEST SWAP1 PUSH1 0x0 MSTORE PUSH1 0x20 PUSH1 0x0 KECCAK256 SWAP1 PUSH1 0x5 MUL ADD PUSH1 0x4 ADD SLOAD DUP3 LT PUSH2 0xAE3 JUMPI PUSH1 0x40 MLOAD PUSH32 0x8C379A000000000000000000000000000000000000000000000000000000000 DUP2 MSTORE PUSH1 0x4 ADD PUSH2 0xADA SWAP1 PUSH2 0x1F59 JUMP JUMPDEST PUSH1 0x40 MLOAD DUP1 SWAP2 SUB SWAP1 REVERT JUMPDEST PUSH2 0xAEF DUP4 CALLER ADDRESS DUP6 PUSH2 0x1381 JUMP JUMPDEST PUSH1 0x0 PUSH1 0x40 MLOAD DUP1 PUSH1 0x60 ADD PUSH1 0x40 MSTORE DUP1 DUP5 DUP2 MSTORE PUSH1 0x20 ADD CALLER PUSH20 0xFFFFFFFFFFFFFFFFFFFFFFFFFFFFFFFFFFFFFFFF AND DUP2 MSTORE PUSH1 0x20 ADD DUP4 PUSH4 0xFFFFFFFF AND DUP2 MSTORE POP SWAP1 POP PUSH1 0xA DUP2 SWAP1 DUP1 PUSH1 0x1 DUP2 SLOAD ADD DUP1 DUP3 SSTORE DUP1 SWAP2 POP POP PUSH1 0x1 SWAP1 SUB SWAP1 PUSH1 0x0 MSTORE PUSH1 0x20 PUSH1 0x0 KECCAK256 SWAP1 PUSH1 0x3 MUL ADD PUSH1 0x0 SWAP1 SWAP2 SWAP1 SWAP2 SWAP1 SWAP2 POP PUSH1 0x0 DUP3 ADD MLOAD DUP2 PUSH1 0x0 ADD SSTORE PUSH1 0x20 DUP3 ADD MLOAD DUP2 PUSH1 0x1 ADD PUSH1 0x0 PUSH2 0x100 EXP DUP2 SLOAD DUP2 PUSH20 0xFFFFFFFFFFFFFFFFFFFFFFFFFFFFFFFFFFFFFFFF MUL NOT AND SWAP1 DUP4 PUSH20 0xFFFFFFFFFFFFFFFFFFFFFFFFFFFFFFFFFFFFFFFF AND MUL OR SWAP1 SSTORE POP PUSH1 0x40 DUP3 ADD MLOAD DUP2 PUSH1 0x2 ADD SSTORE POP POP PUSH32 0xE1FFFCC4923D04B559F4D29A8BFC6CDA04EB5B0D3C460751C2402C5C5CC9109C DUP5 DUP5 PUSH1 0x40 MLOAD PUSH2 0xBE4 SWAP3 SWAP2 SWAP1 PUSH2 0x1D1D JUMP JUMPDEST PUSH1 0x40 MLOAD DUP1 SWAP2 SUB SWAP1 LOG1 POP POP POP POP JUMP JUMPDEST PUSH1 0x1 DUP1 SLOAD PUSH2 0xBFF SWAP1 PUSH2 0x1FA8 JUMP JUMPDEST DUP1 PUSH1 0x1F ADD PUSH1 0x20 DUP1 SWAP2 DIV MUL PUSH1 0x20 ADD PUSH1 0x40 MLOAD SWAP1 DUP2 ADD PUSH1 0x40 MSTORE DUP1 SWAP3 SWAP2 SWAP1 DUP2 DUP2 MSTORE PUSH1 0x20 ADD DUP3 DUP1 SLOAD PUSH2 0xC2B SWAP1 PUSH2 0x1FA8 JUMP JUMPDEST DUP1 ISZERO PUSH2 0xC78 JUMPI DUP1 PUSH1 0x1F LT PUSH2 0xC4D JUMPI PUSH2 0x100 DUP1 DUP4 SLOAD DIV MUL DUP4 MSTORE SWAP2 PUSH1 0x20 ADD SWAP2 PUSH2 0xC78 JUMP JUMPDEST DUP3 ADD SWAP2 SWAP1 PUSH1 0x0 MSTORE PUSH1 0x20 PUSH1 0x0 KECCAK256 SWAP1 JUMPDEST DUP2 SLOAD DUP2 MSTORE SWAP1 PUSH1 0x1 ADD SWAP1 PUSH1 0x20 ADD DUP1 DUP4 GT PUSH2 0xC5B JUMPI DUP3 SWAP1 SUB PUSH1 0x1F AND DUP3 ADD SWAP2 JUMPDEST POP POP POP POP POP DUP2 JUMP JUMPDEST PUSH1 0x0 DUP1 SLOAD PUSH2 0xC8D SWAP1 PUSH2 0x1FA8 JUMP JUMPDEST DUP1 PUSH1 0x1F ADD PUSH1 0x20 DUP1 SWAP2 DIV MUL PUSH1 0x20 ADD PUSH1 0x40 MLOAD SWAP1 DUP2 ADD PUSH1 0x40 MSTORE DUP1 SWAP3 SWAP2 SWAP1 DUP2 DUP2 MSTORE PUSH1 0x20 ADD DUP3 DUP1 SLOAD PUSH2 0xCB9 SWAP1 PUSH2 0x1FA8 JUMP JUMPDEST DUP1 ISZERO PUSH2 0xD06 JUMPI DUP1 PUSH1 0x1F LT PUSH2 0xCDB JUMPI PUSH2 0x100 DUP1 DUP4 SLOAD DIV MUL DUP4 MSTORE SWAP2 PUSH1 0x20 ADD SWAP2 PUSH2 0xD06 JUMP JUMPDEST DUP3 ADD SWAP2 SWAP1 PUSH1 0x0 MSTORE PUSH1 0x20 PUSH1 0x0 KECCAK256 SWAP1 JUMPDEST DUP2 SLOAD DUP2 MSTORE SWAP1 PUSH1 0x1 ADD SWAP1 PUSH1 0x20 ADD DUP1 DUP4 GT PUSH2 0xCE9 JUMPI DUP3 SWAP1 SUB PUSH1 0x1F AND DUP3 ADD SWAP2 JUMPDEST POP POP POP POP POP DUP2 JUMP JUMPDEST PUSH1 0x5 SLOAD DUP2 JUMP JUMPDEST PUSH1 0x4 SLOAD DUP2 JUMP JUMPDEST PUSH1 0x8 DUP2 DUP2 SLOAD DUP2 LT PUSH2 0xD2A JUMPI PUSH1 0x0 DUP1 REVERT JUMPDEST SWAP1 PUSH1 0x0 MSTORE PUSH1 0x20 PUSH1 0x0 KECCAK256 SWAP1 PUSH1 0x5 MUL ADD PUSH1 0x0 SWAP2 POP SWAP1 POP DUP1 PUSH1 0x0 ADD PUSH1 0x0 SWAP1 SLOAD SWAP1 PUSH2 0x100 EXP SWAP1 DIV PUSH20 0xFFFFFFFFFFFFFFFFFFFFFFFFFFFFFFFFFFFFFFFF AND SWAP1 DUP1 PUSH1 0x1 ADD DUP1 SLOAD PUSH2 0xD73 SWAP1 PUSH2 0x1FA8 JUMP JUMPDEST DUP1 PUSH1 0x1F ADD PUSH1 0x20 DUP1 SWAP2 DIV MUL PUSH1 0x20 ADD PUSH1 0x40 MLOAD SWAP1 DUP2 ADD PUSH1 0x40 MSTORE DUP1 SWAP3 SWAP2 SWAP1 DUP2 DUP2 MSTORE PUSH1 0x20 ADD DUP3 DUP1 SLOAD PUSH2 0xD9F SWAP1 PUSH2 0x1FA8 JUMP JUMPDEST DUP1 ISZERO PUSH2 0xDEC JUMPI DUP1 PUSH1 0x1F LT PUSH2 0xDC1 JUMPI PUSH2 0x100 DUP1 DUP4 SLOAD DIV MUL DUP4 MSTORE SWAP2 PUSH1 0x20 ADD SWAP2 PUSH2 0xDEC JUMP JUMPDEST DUP3 ADD SWAP2 SWAP1 PUSH1 0x0 MSTORE PUSH1 0x20 PUSH1 0x0 KECCAK256 SWAP1 JUMPDEST DUP2 SLOAD DUP2 MSTORE SWAP1 PUSH1 0x1 ADD SWAP1 PUSH1 0x20 ADD DUP1 DUP4 GT PUSH2 0xDCF JUMPI DUP3 SWAP1 SUB PUSH1 0x1F AND DUP3 ADD SWAP2 JUMPDEST POP POP POP POP POP SWAP1 DUP1 PUSH1 0x2 ADD DUP1 SLOAD PUSH2 0xE01 SWAP1 PUSH2 0x1FA8 JUMP JUMPDEST DUP1 PUSH1 0x1F ADD PUSH1 0x20 DUP1 SWAP2 DIV MUL PUSH1 0x20 ADD PUSH1 0x40 MLOAD SWAP1 DUP2 ADD PUSH1 0x40 MSTORE DUP1 SWAP3 SWAP2 SWAP1 DUP2 DUP2 MSTORE PUSH1 0x20 ADD DUP3 DUP1 SLOAD PUSH2 0xE2D SWAP1 PUSH2 0x1FA8 JUMP JUMPDEST DUP1 ISZERO PUSH2 0xE7A JUMPI DUP1 PUSH1 0x1F LT PUSH2 0xE4F JUMPI PUSH2 0x100 DUP1 DUP4 SLOAD DIV MUL DUP4 MSTORE SWAP2 PUSH1 0x20 ADD SWAP2 PUSH2 0xE7A JUMP JUMPDEST DUP3 ADD SWAP2 SWAP1 PUSH1 0x0 MSTORE PUSH1 0x20 PUSH1 0x0 KECCAK256 SWAP1 JUMPDEST DUP2 SLOAD DUP2 MSTORE SWAP1 PUSH1 0x1 ADD SWAP1 PUSH1 0x20 ADD DUP1 DUP4 GT PUSH2 0xE5D JUMPI DUP3 SWAP1 SUB PUSH1 0x1F AND DUP3 ADD SWAP2 JUMPDEST POP POP POP POP POP SWAP1 DUP1 PUSH1 0x3 ADD SLOAD SWAP1 DUP1 PUSH1 0x4 ADD SLOAD SWAP1 POP DUP6 JUMP JUMPDEST PUSH1 0x7 DUP1 SLOAD PUSH2 0xE9D SWAP1 PUSH2 0x1FA8 JUMP JUMPDEST DUP1 PUSH1 0x1F ADD PUSH1 0x20 DUP1 SWAP2 DIV MUL PUSH1 0x20 ADD PUSH1 0x40 MLOAD SWAP1 DUP2 ADD PUSH1 0x40 MSTORE DUP1 SWAP3 SWAP2 SWAP1 DUP2 DUP2 MSTORE PUSH1 0x20 ADD DUP3 DUP1 SLOAD PUSH2 0xEC9 SWAP1 PUSH2 0x1FA8 JUMP JUMPDEST DUP1 ISZERO PUSH2 0xF16 JUMPI DUP1 PUSH1 0x1F LT PUSH2 0xEEB JUMPI PUSH2 0x100 DUP1 DUP4 SLOAD DIV MUL DUP4 MSTORE SWAP2 PUSH1 0x20 ADD SWAP2 PUSH2 0xF16 JUMP JUMPDEST DUP3 ADD SWAP2 SWAP1 PUSH1 0x0 MSTORE PUSH1 0x20 PUSH1 0x0 KECCAK256 SWAP1 JUMPDEST DUP2 SLOAD DUP2 MSTORE SWAP1 PUSH1 0x1 ADD SWAP1 PUSH1 0x20 ADD DUP1 DUP4 GT PUSH2 0xEF9 JUMPI DUP3 SWAP1 SUB PUSH1 0x1F AND DUP3 ADD SWAP2 JUMPDEST POP POP POP POP POP DUP2 JUMP JUMPDEST PUSH1 0x9 DUP2 DUP2 SLOAD DUP2 LT PUSH2 0xF2E JUMPI PUSH1 0x0 DUP1 REVERT JUMPDEST SWAP1 PUSH1 0x0 MSTORE PUSH1 0x20 PUSH1 0x0 KECCAK256 SWAP1 PUSH1 0x5 MUL ADD PUSH1 0x0 SWAP2 POP SWAP1 POP DUP1 PUSH1 0x0 ADD PUSH1 0x0 SWAP1 SLOAD SWAP1 PUSH2 0x100 EXP SWAP1 DIV PUSH20 0xFFFFFFFFFFFFFFFFFFFFFFFFFFFFFFFFFFFFFFFF AND SWAP1 DUP1 PUSH1 0x1 ADD DUP1 SLOAD PUSH2 0xF77 SWAP1 PUSH2 0x1FA8 JUMP JUMPDEST DUP1 PUSH1 0x1F ADD PUSH1 0x20 DUP1 SWAP2 DIV MUL PUSH1 0x20 ADD PUSH1 0x40 MLOAD SWAP1 DUP2 ADD PUSH1 0x40 MSTORE DUP1 SWAP3 SWAP2 SWAP1 DUP2 DUP2 MSTORE PUSH1 0x20 ADD DUP3 DUP1 SLOAD PUSH2 0xFA3 SWAP1 PUSH2 0x1FA8 JUMP JUMPDEST DUP1 ISZERO PUSH2 0xFF0 JUMPI DUP1 PUSH1 0x1F LT PUSH2 0xFC5 JUMPI PUSH2 0x100 DUP1 DUP4 SLOAD DIV MUL DUP4 MSTORE SWAP2 PUSH1 0x20 ADD SWAP2 PUSH2 0xFF0 JUMP JUMPDEST DUP3 ADD SWAP2 SWAP1 PUSH1 0x0 MSTORE PUSH1 0x20 PUSH1 0x0 KECCAK256 SWAP1 JUMPDEST DUP2 SLOAD DUP2 MSTORE SWAP1 PUSH1 0x1 ADD SWAP1 PUSH1 0x20 ADD DUP1 DUP4 GT PUSH2 0xFD3 JUMPI DUP3 SWAP1 SUB PUSH1 0x1F AND DUP3 ADD SWAP2 JUMPDEST POP POP POP POP POP SWAP1 DUP1 PUSH1 0x2 ADD DUP1 SLOAD PUSH2 0x1005 SWAP1 PUSH2 0x1FA8 JUMP JUMPDEST DUP1 PUSH1 0x1F ADD PUSH1 0x20 DUP1 SWAP2 DIV MUL PUSH1 0x20 ADD PUSH1 0x40 MLOAD SWAP1 DUP2 ADD PUSH1 0x40 MSTORE DUP1 SWAP3 SWAP2 SWAP1 DUP2 DUP2 MSTORE PUSH1 0x20 ADD DUP3 DUP1 SLOAD PUSH2 0x1031 SWAP1 PUSH2 0x1FA8 JUMP JUMPDEST DUP1 ISZERO PUSH2 0x107E JUMPI DUP1 PUSH1 0x1F LT PUSH2 0x1053 JUMPI PUSH2 0x100 DUP1 DUP4 SLOAD DIV MUL DUP4 MSTORE SWAP2 PUSH1 0x20 ADD SWAP2 PUSH2 0x107E JUMP JUMPDEST DUP3 ADD SWAP2 SWAP1 PUSH1 0x0 MSTORE PUSH1 0x20 PUSH1 0x0 KECCAK256 SWAP1 JUMPDEST DUP2 SLOAD DUP2 MSTORE SWAP1 PUSH1 0x1 ADD SWAP1 PUSH1 0x20 ADD DUP1 DUP4 GT PUSH2 0x1061 JUMPI DUP3 SWAP1 SUB PUSH1 0x1F AND DUP3 ADD SWAP2 JUMPDEST POP POP POP POP POP SWAP1 DUP1 PUSH1 0x3 ADD SLOAD SWAP1 DUP1 PUSH1 0x4 ADD SLOAD SWAP1 POP DUP6 JUMP JUMPDEST PUSH1 0x2 DUP1 SLOAD PUSH2 0x10A1 SWAP1 PUSH2 0x1FA8 JUMP JUMPDEST DUP1 PUSH1 0x1F ADD PUSH1 0x20 DUP1 SWAP2 DIV MUL PUSH1 0x20 ADD PUSH1 0x40 MLOAD SWAP1 DUP2 ADD PUSH1 0x40 MSTORE DUP1 SWAP3 SWAP2 SWAP1 DUP2 DUP2 MSTORE PUSH1 0x20 ADD DUP3 DUP1 SLOAD PUSH2 0x10CD SWAP1 PUSH2 0x1FA8 JUMP JUMPDEST DUP1 ISZERO PUSH2 0x111A JUMPI DUP1 PUSH1 0x1F LT PUSH2 0x10EF JUMPI PUSH2 0x100 DUP1 DUP4 SLOAD DIV MUL DUP4 MSTORE SWAP2 PUSH1 0x20 ADD SWAP2 PUSH2 0x111A JUMP JUMPDEST DUP3 ADD SWAP2 SWAP1 PUSH1 0x0 MSTORE PUSH1 0x20 PUSH1 0x0 KECCAK256 SWAP1 JUMPDEST DUP2 SLOAD DUP2 MSTORE SWAP1 PUSH1 0x1 ADD SWAP1 PUSH1 0x20 ADD DUP1 DUP4 GT PUSH2 0x10FD JUMPI DUP3 SWAP1 SUB PUSH1 0x1F AND DUP3 ADD SWAP2 JUMPDEST POP POP POP POP POP DUP2 JUMP JUMPDEST PUSH1 0x0 PUSH1 0x40 MLOAD DUP1 PUSH1 0xA0 ADD PUSH1 0x40 MSTORE DUP1 DUP13 PUSH20 0xFFFFFFFFFFFFFFFFFFFFFFFFFFFFFFFFFFFFFFFF AND DUP2 MSTORE PUSH1 0x20 ADD DUP12 DUP2 MSTORE PUSH1 0x20 ADD DUP11 DUP2 MSTORE PUSH1 0x20 ADD DUP10 DUP2 MSTORE PUSH1 0x20 ADD DUP9 DUP2 MSTORE POP SWAP1 POP PUSH1 0x8 DUP2 SWAP1 DUP1 PUSH1 0x1 DUP2 SLOAD ADD DUP1 DUP3 SSTORE DUP1 SWAP2 POP POP PUSH1 0x1 SWAP1 SUB SWAP1 PUSH1 0x0 MSTORE PUSH1 0x20 PUSH1 0x0 KECCAK256 SWAP1 PUSH1 0x5 MUL ADD PUSH1 0x0 SWAP1 SWAP2 SWAP1 SWAP2 SWAP1 SWAP2 POP PUSH1 0x0 DUP3 ADD MLOAD DUP2 PUSH1 0x0 ADD PUSH1 0x0 PUSH2 0x100 EXP DUP2 SLOAD DUP2 PUSH20 0xFFFFFFFFFFFFFFFFFFFFFFFFFFFFFFFFFFFFFFFF MUL NOT AND SWAP1 DUP4 PUSH20 0xFFFFFFFFFFFFFFFFFFFFFFFFFFFFFFFFFFFFFFFF AND MUL OR SWAP1 SSTORE POP PUSH1 0x20 DUP3 ADD MLOAD DUP2 PUSH1 0x1 ADD SWAP1 DUP1 MLOAD SWAP1 PUSH1 0x20 ADD SWAP1 PUSH2 0x11F2 SWAP3 SWAP2 SWAP1 PUSH2 0x14BA JUMP JUMPDEST POP PUSH1 0x40 DUP3 ADD MLOAD DUP2 PUSH1 0x2 ADD SWAP1 DUP1 MLOAD SWAP1 PUSH1 0x20 ADD SWAP1 PUSH2 0x120F SWAP3 SWAP2 SWAP1 PUSH2 0x14BA JUMP JUMPDEST POP PUSH1 0x60 DUP3 ADD MLOAD DUP2 PUSH1 0x3 ADD SSTORE PUSH1 0x80 DUP3 ADD MLOAD DUP2 PUSH1 0x4 ADD SSTORE POP POP PUSH1 0x0 PUSH1 0x40 MLOAD DUP1 PUSH1 0xA0 ADD PUSH1 0x40 MSTORE DUP1 DUP9 PUSH20 0xFFFFFFFFFFFFFFFFFFFFFFFFFFFFFFFFFFFFFFFF AND DUP2 MSTORE PUSH1 0x20 ADD DUP8 DUP2 MSTORE PUSH1 0x20 ADD DUP7 DUP2 MSTORE PUSH1 0x20 ADD DUP6 DUP2 MSTORE PUSH1 0x20 ADD DUP5 DUP2 MSTORE POP SWAP1 POP PUSH1 0x9 DUP2 SWAP1 DUP1 PUSH1 0x1 DUP2 SLOAD ADD DUP1 DUP3 SSTORE DUP1 SWAP2 POP POP PUSH1 0x1 SWAP1 SUB SWAP1 PUSH1 0x0 MSTORE PUSH1 0x20 PUSH1 0x0 KECCAK256 SWAP1 PUSH1 0x5 MUL ADD PUSH1 0x0 SWAP1 SWAP2 SWAP1 SWAP2 SWAP1 SWAP2 POP PUSH1 0x0 DUP3 ADD MLOAD DUP2 PUSH1 0x0 ADD PUSH1 0x0 PUSH2 0x100 EXP DUP2 SLOAD DUP2 PUSH20 0xFFFFFFFFFFFFFFFFFFFFFFFFFFFFFFFFFFFFFFFF MUL NOT AND SWAP1 DUP4 PUSH20 0xFFFFFFFFFFFFFFFFFFFFFFFFFFFFFFFFFFFFFFFF AND MUL OR SWAP1 SSTORE POP PUSH1 0x20 DUP3 ADD MLOAD DUP2 PUSH1 0x1 ADD SWAP1 DUP1 MLOAD SWAP1 PUSH1 0x20 ADD SWAP1 PUSH2 0x12F6 SWAP3 SWAP2 SWAP1 PUSH2 0x14BA JUMP JUMPDEST POP PUSH1 0x40 DUP3 ADD MLOAD DUP2 PUSH1 0x2 ADD SWAP1 DUP1 MLOAD SWAP1 PUSH1 0x20 ADD SWAP1 PUSH2 0x1313 SWAP3 SWAP2 SWAP1 PUSH2 0x14BA JUMP JUMPDEST POP PUSH1 0x60 DUP3 ADD MLOAD DUP2 PUSH1 0x3 ADD SSTORE PUSH1 0x80 DUP3 ADD MLOAD DUP2 PUSH1 0x4 ADD SSTORE POP POP PUSH32 0x8B14A41790CE5676FD24C8742D1FB5F2F36679E501D582DF4CE403B299483C49 DUP13 DUP13 DUP13 DUP13 DUP13 DUP13 DUP13 DUP13 DUP13 DUP13 PUSH1 0x40 MLOAD PUSH2 0x136B SWAP11 SWAP10 SWAP9 SWAP8 SWAP7 SWAP6 SWAP5 SWAP4 SWAP3 SWAP2 SWAP1 PUSH2 0x1FDA JUMP JUMPDEST PUSH1 0x40 MLOAD DUP1 SWAP2 SUB SWAP1 LOG1 POP POP POP POP POP POP POP POP POP POP POP POP JUMP JUMPDEST PUSH1 0x0 DUP1 DUP6 PUSH20 0xFFFFFFFFFFFFFFFFFFFFFFFFFFFFFFFFFFFFFFFF AND PUSH4 0x23B872DD DUP7 DUP7 DUP7 PUSH1 0x40 MLOAD PUSH1 0x24 ADD PUSH2 0x13B5 SWAP4 SWAP3 SWAP2 SWAP1 PUSH2 0x2092 JUMP JUMPDEST PUSH1 0x40 MLOAD PUSH1 0x20 DUP2 DUP4 SUB SUB DUP2 MSTORE SWAP1 PUSH1 0x40 MSTORE SWAP1 PUSH1 0xE0 SHL PUSH1 0x20 DUP3 ADD DUP1 MLOAD PUSH28 0xFFFFFFFFFFFFFFFFFFFFFFFFFFFFFFFFFFFFFFFFFFFFFFFFFFFFFFFF DUP4 DUP2 DUP4 AND OR DUP4 MSTORE POP POP POP POP PUSH1 0x40 MLOAD PUSH2 0x1403 SWAP2 SWAP1 PUSH2 0x2110 JUMP JUMPDEST PUSH1 0x0 PUSH1 0x40 MLOAD DUP1 DUP4 SUB DUP2 PUSH1 0x0 DUP7 GAS CALL SWAP2 POP POP RETURNDATASIZE DUP1 PUSH1 0x0 DUP2 EQ PUSH2 0x1440 JUMPI PUSH1 0x40 MLOAD SWAP2 POP PUSH1 0x1F NOT PUSH1 0x3F RETURNDATASIZE ADD AND DUP3 ADD PUSH1 0x40 MSTORE RETURNDATASIZE DUP3 MSTORE RETURNDATASIZE PUSH1 0x0 PUSH1 0x20 DUP5 ADD RETURNDATACOPY PUSH2 0x1445 JUMP JUMPDEST PUSH1 0x60 SWAP2 POP JUMPDEST POP SWAP2 POP SWAP2 POP DUP2 DUP1 ISZERO PUSH2 0x1473 JUMPI POP PUSH1 0x0 DUP2 MLOAD EQ DUP1 PUSH2 0x1472 JUMPI POP DUP1 DUP1 PUSH1 0x20 ADD SWAP1 MLOAD DUP2 ADD SWAP1 PUSH2 0x1471 SWAP2 SWAP1 PUSH2 0x1D7E JUMP JUMPDEST JUMPDEST JUMPDEST PUSH2 0x14B2 JUMPI PUSH1 0x40 MLOAD PUSH32 0x8C379A000000000000000000000000000000000000000000000000000000000 DUP2 MSTORE PUSH1 0x4 ADD PUSH2 0x14A9 SWAP1 PUSH2 0x2199 JUMP JUMPDEST PUSH1 0x40 MLOAD DUP1 SWAP2 SUB SWAP1 REVERT JUMPDEST POP POP POP POP POP POP JUMP JUMPDEST DUP3 DUP1 SLOAD PUSH2 0x14C6 SWAP1 PUSH2 0x1FA8 JUMP JUMPDEST SWAP1 PUSH1 0x0 MSTORE PUSH1 0x20 PUSH1 0x0 KECCAK256 SWAP1 PUSH1 0x1F ADD PUSH1 0x20 SWAP1 DIV DUP2 ADD SWAP3 DUP3 PUSH2 0x14E8 JUMPI PUSH1 0x0 DUP6 SSTORE PUSH2 0x152F JUMP JUMPDEST DUP3 PUSH1 0x1F LT PUSH2 0x1501 JUMPI DUP1 MLOAD PUSH1 0xFF NOT AND DUP4 DUP1 ADD OR DUP6 SSTORE PUSH2 0x152F JUMP JUMPDEST DUP3 DUP1 ADD PUSH1 0x1 ADD DUP6 SSTORE DUP3 ISZERO PUSH2 0x152F JUMPI SWAP2 DUP3 ADD JUMPDEST DUP3 DUP2 GT ISZERO PUSH2 0x152E JUMPI DUP3 MLOAD DUP3 SSTORE SWAP2 PUSH1 0x20 ADD SWAP2 SWAP1 PUSH1 0x1 ADD SWAP1 PUSH2 0x1513 JUMP JUMPDEST JUMPDEST POP SWAP1 POP PUSH2 0x153C SWAP2 SWAP1 PUSH2 0x1540 JUMP JUMPDEST POP SWAP1 JUMP JUMPDEST JUMPDEST DUP1 DUP3 GT ISZERO PUSH2 0x1559 JUMPI PUSH1 0x0 DUP2 PUSH1 0x0 SWAP1 SSTORE POP PUSH1 0x1 ADD PUSH2 0x1541 JUMP JUMPDEST POP SWAP1 JUMP JUMPDEST PUSH1 0x0 PUSH1 0x40 MLOAD SWAP1 POP SWAP1 JUMP JUMPDEST PUSH1 0x0 DUP1 REVERT JUMPDEST PUSH1 0x0 DUP1 REVERT JUMPDEST PUSH1 0x0 PUSH20 0xFFFFFFFFFFFFFFFFFFFFFFFFFFFFFFFFFFFFFFFF DUP3 AND SWAP1 POP SWAP2 SWAP1 POP JUMP JUMPDEST PUSH1 0x0 PUSH2 0x159C DUP3 PUSH2 0x1571 JUMP JUMPDEST SWAP1 POP SWAP2 SWAP1 POP JUMP JUMPDEST PUSH2 0x15AC DUP2 PUSH2 0x1591 JUMP JUMPDEST DUP2 EQ PUSH2 0x15B7 JUMPI PUSH1 0x0 DUP1 REVERT JUMPDEST POP JUMP JUMPDEST PUSH1 0x0 DUP2 CALLDATALOAD SWAP1 POP PUSH2 0x15C9 DUP2 PUSH2 0x15A3 JUMP JUMPDEST SWAP3 SWAP2 POP POP JUMP JUMPDEST PUSH1 0x0 DUP2 SWAP1 POP SWAP2 SWAP1 POP JUMP JUMPDEST PUSH2 0x15E2 DUP2 PUSH2 0x15CF JUMP JUMPDEST DUP2 EQ PUSH2 0x15ED JUMPI PUSH1 0x0 DUP1 REVERT JUMPDEST POP JUMP JUMPDEST PUSH1 0x0 DUP2 CALLDATALOAD SWAP1 POP PUSH2 0x15FF DUP2 PUSH2 0x15D9 JUMP JUMPDEST SWAP3 SWAP2 POP POP JUMP JUMPDEST PUSH1 0x0 DUP1 PUSH1 0x0 PUSH1 0x60 DUP5 DUP7 SUB SLT ISZERO PUSH2 0x161E JUMPI PUSH2 0x161D PUSH2 0x1567 JUMP JUMPDEST JUMPDEST PUSH1 0x0 PUSH2 0x162C DUP7 DUP3 DUP8 ADD PUSH2 0x15BA JUMP JUMPDEST SWAP4 POP POP PUSH1 0x20 PUSH2 0x163D DUP7 DUP3 DUP8 ADD PUSH2 0x15F0 JUMP JUMPDEST SWAP3 POP POP PUSH1 0x40 PUSH2 0x164E DUP7 DUP3 DUP8 ADD PUSH2 0x15F0 JUMP JUMPDEST SWAP2 POP POP SWAP3 POP SWAP3 POP SWAP3 JUMP JUMPDEST PUSH2 0x1661 DUP2 PUSH2 0x15CF JUMP JUMPDEST DUP3 MSTORE POP POP JUMP JUMPDEST PUSH1 0x0 PUSH1 0x20 DUP3 ADD SWAP1 POP PUSH2 0x167C PUSH1 0x0 DUP4 ADD DUP5 PUSH2 0x1658 JUMP JUMPDEST SWAP3 SWAP2 POP POP JUMP JUMPDEST PUSH1 0x0 DUP1 PUSH1 0x0 DUP1 PUSH1 0x0 DUP1 PUSH1 0x0 PUSH1 0xE0 DUP9 DUP11 SUB SLT ISZERO PUSH2 0x16A1 JUMPI PUSH2 0x16A0 PUSH2 0x1567 JUMP JUMPDEST JUMPDEST PUSH1 0x0 PUSH2 0x16AF DUP11 DUP3 DUP12 ADD PUSH2 0x15F0 JUMP JUMPDEST SWAP8 POP POP PUSH1 0x20 PUSH2 0x16C0 DUP11 DUP3 DUP12 ADD PUSH2 0x15F0 JUMP JUMPDEST SWAP7 POP POP PUSH1 0x40 PUSH2 0x16D1 DUP11 DUP3 DUP12 ADD PUSH2 0x15F0 JUMP JUMPDEST SWAP6 POP POP PUSH1 0x60 PUSH2 0x16E2 DUP11 DUP3 DUP12 ADD PUSH2 0x15F0 JUMP JUMPDEST SWAP5 POP POP PUSH1 0x80 PUSH2 0x16F3 DUP11 DUP3 DUP12 ADD PUSH2 0x15F0 JUMP JUMPDEST SWAP4 POP POP PUSH1 0xA0 PUSH2 0x1704 DUP11 DUP3 DUP12 ADD PUSH2 0x15F0 JUMP JUMPDEST SWAP3 POP POP PUSH1 0xC0 PUSH2 0x1715 DUP11 DUP3 DUP12 ADD PUSH2 0x15F0 JUMP JUMPDEST SWAP2 POP POP SWAP3 SWAP6 SWAP9 SWAP2 SWAP5 SWAP8 POP SWAP3 SWAP6 POP JUMP JUMPDEST PUSH1 0x0 PUSH1 0x20 DUP3 DUP5 SUB SLT ISZERO PUSH2 0x173A JUMPI PUSH2 0x1739 PUSH2 0x1567 JUMP JUMPDEST JUMPDEST PUSH1 0x0 PUSH2 0x1748 DUP5 DUP3 DUP6 ADD PUSH2 0x15F0 JUMP JUMPDEST SWAP2 POP POP SWAP3 SWAP2 POP POP JUMP JUMPDEST PUSH2 0x175A DUP2 PUSH2 0x1591 JUMP JUMPDEST DUP3 MSTORE POP POP JUMP JUMPDEST PUSH1 0x0 PUSH1 0x60 DUP3 ADD SWAP1 POP PUSH2 0x1775 PUSH1 0x0 DUP4 ADD DUP7 PUSH2 0x1658 JUMP JUMPDEST PUSH2 0x1782 PUSH1 0x20 DUP4 ADD DUP6 PUSH2 0x1751 JUMP JUMPDEST PUSH2 0x178F PUSH1 0x40 DUP4 ADD DUP5 PUSH2 0x1658 JUMP JUMPDEST SWAP5 SWAP4 POP POP POP POP JUMP JUMPDEST PUSH1 0x0 DUP1 PUSH1 0x40 DUP4 DUP6 SUB SLT ISZERO PUSH2 0x17AE JUMPI PUSH2 0x17AD PUSH2 0x1567 JUMP JUMPDEST JUMPDEST PUSH1 0x0 PUSH2 0x17BC DUP6 DUP3 DUP7 ADD PUSH2 0x15BA JUMP JUMPDEST SWAP3 POP POP PUSH1 0x20 PUSH2 0x17CD DUP6 DUP3 DUP7 ADD PUSH2 0x15F0 JUMP JUMPDEST SWAP2 POP POP SWAP3 POP SWAP3 SWAP1 POP JUMP JUMPDEST PUSH1 0x0 DUP2 MLOAD SWAP1 POP SWAP2 SWAP1 POP JUMP JUMPDEST PUSH1 0x0 DUP3 DUP3 MSTORE PUSH1 0x20 DUP3 ADD SWAP1 POP SWAP3 SWAP2 POP POP JUMP JUMPDEST PUSH1 0x0 JUMPDEST DUP4 DUP2 LT ISZERO PUSH2 0x1811 JUMPI DUP1 DUP3 ADD MLOAD DUP2 DUP5 ADD MSTORE PUSH1 0x20 DUP2 ADD SWAP1 POP PUSH2 0x17F6 JUMP JUMPDEST DUP4 DUP2 GT ISZERO PUSH2 0x1820 JUMPI PUSH1 0x0 DUP5 DUP5 ADD MSTORE JUMPDEST POP POP POP POP JUMP JUMPDEST PUSH1 0x0 PUSH1 0x1F NOT PUSH1 0x1F DUP4 ADD AND SWAP1 POP SWAP2 SWAP1 POP JUMP JUMPDEST PUSH1 0x0 PUSH2 0x1842 DUP3 PUSH2 0x17D7 JUMP JUMPDEST PUSH2 0x184C DUP2 DUP6 PUSH2 0x17E2 JUMP JUMPDEST SWAP4 POP PUSH2 0x185C DUP2 DUP6 PUSH1 0x20 DUP7 ADD PUSH2 0x17F3 JUMP JUMPDEST PUSH2 0x1865 DUP2 PUSH2 0x1826 JUMP JUMPDEST DUP5 ADD SWAP2 POP POP SWAP3 SWAP2 POP POP JUMP JUMPDEST PUSH1 0x0 PUSH1 0x20 DUP3 ADD SWAP1 POP DUP2 DUP2 SUB PUSH1 0x0 DUP4 ADD MSTORE PUSH2 0x188A DUP2 DUP5 PUSH2 0x1837 JUMP JUMPDEST SWAP1 POP SWAP3 SWAP2 POP POP JUMP JUMPDEST PUSH1 0x0 PUSH1 0xA0 DUP3 ADD SWAP1 POP PUSH2 0x18A7 PUSH1 0x0 DUP4 ADD DUP9 PUSH2 0x1751 JUMP JUMPDEST DUP2 DUP2 SUB PUSH1 0x20 DUP4 ADD MSTORE PUSH2 0x18B9 DUP2 DUP8 PUSH2 0x1837 JUMP JUMPDEST SWAP1 POP DUP2 DUP2 SUB PUSH1 0x40 DUP4 ADD MSTORE PUSH2 0x18CD DUP2 DUP7 PUSH2 0x1837 JUMP JUMPDEST SWAP1 POP PUSH2 0x18DC PUSH1 0x60 DUP4 ADD DUP6 PUSH2 0x1658 JUMP JUMPDEST PUSH2 0x18E9 PUSH1 0x80 DUP4 ADD DUP5 PUSH2 0x1658 JUMP JUMPDEST SWAP7 SWAP6 POP POP POP POP POP POP JUMP JUMPDEST PUSH1 0x0 DUP1 REVERT JUMPDEST PUSH1 0x0 DUP1 REVERT JUMPDEST PUSH32 0x4E487B7100000000000000000000000000000000000000000000000000000000 PUSH1 0x0 MSTORE PUSH1 0x41 PUSH1 0x4 MSTORE PUSH1 0x24 PUSH1 0x0 REVERT JUMPDEST PUSH2 0x1935 DUP3 PUSH2 0x1826 JUMP JUMPDEST DUP2 ADD DUP2 DUP2 LT PUSH8 0xFFFFFFFFFFFFFFFF DUP3 GT OR ISZERO PUSH2 0x1954 JUMPI PUSH2 0x1953 PUSH2 0x18FD JUMP JUMPDEST JUMPDEST DUP1 PUSH1 0x40 MSTORE POP POP POP JUMP JUMPDEST PUSH1 0x0 PUSH2 0x1967 PUSH2 0x155D JUMP JUMPDEST SWAP1 POP PUSH2 0x1973 DUP3 DUP3 PUSH2 0x192C JUMP JUMPDEST SWAP2 SWAP1 POP JUMP JUMPDEST PUSH1 0x0 PUSH8 0xFFFFFFFFFFFFFFFF DUP3 GT ISZERO PUSH2 0x1993 JUMPI PUSH2 0x1992 PUSH2 0x18FD JUMP JUMPDEST JUMPDEST PUSH2 0x199C DUP3 PUSH2 0x1826 JUMP JUMPDEST SWAP1 POP PUSH1 0x20 DUP2 ADD SWAP1 POP SWAP2 SWAP1 POP JUMP JUMPDEST DUP3 DUP2 DUP4 CALLDATACOPY PUSH1 0x0 DUP4 DUP4 ADD MSTORE POP POP POP JUMP JUMPDEST PUSH1 0x0 PUSH2 0x19CB PUSH2 0x19C6 DUP5 PUSH2 0x1978 JUMP JUMPDEST PUSH2 0x195D JUMP JUMPDEST SWAP1 POP DUP3 DUP2 MSTORE PUSH1 0x20 DUP2 ADD DUP5 DUP5 DUP5 ADD GT ISZERO PUSH2 0x19E7 JUMPI PUSH2 0x19E6 PUSH2 0x18F8 JUMP JUMPDEST JUMPDEST PUSH2 0x19F2 DUP5 DUP3 DUP6 PUSH2 0x19A9 JUMP JUMPDEST POP SWAP4 SWAP3 POP POP POP JUMP JUMPDEST PUSH1 0x0 DUP3 PUSH1 0x1F DUP4 ADD SLT PUSH2 0x1A0F JUMPI PUSH2 0x1A0E PUSH2 0x18F3 JUMP JUMPDEST JUMPDEST DUP2 CALLDATALOAD PUSH2 0x1A1F DUP5 DUP3 PUSH1 0x20 DUP7 ADD PUSH2 0x19B8 JUMP JUMPDEST SWAP2 POP POP SWAP3 SWAP2 POP POP JUMP JUMPDEST PUSH1 0x0 DUP1 PUSH1 0x0 DUP1 PUSH1 0x0 DUP1 PUSH1 0x0 DUP1 PUSH1 0x0 DUP1 PUSH2 0x140 DUP12 DUP14 SUB SLT ISZERO PUSH2 0x1A4C JUMPI PUSH2 0x1A4B PUSH2 0x1567 JUMP JUMPDEST JUMPDEST PUSH1 0x0 PUSH2 0x1A5A DUP14 DUP3 DUP15 ADD PUSH2 0x15BA JUMP JUMPDEST SWAP11 POP POP PUSH1 0x20 DUP12 ADD CALLDATALOAD PUSH8 0xFFFFFFFFFFFFFFFF DUP2 GT ISZERO PUSH2 0x1A7B JUMPI PUSH2 0x1A7A PUSH2 0x156C JUMP JUMPDEST JUMPDEST PUSH2 0x1A87 DUP14 DUP3 DUP15 ADD PUSH2 0x19FA JUMP JUMPDEST SWAP10 POP POP PUSH1 0x40 DUP12 ADD CALLDATALOAD PUSH8 0xFFFFFFFFFFFFFFFF DUP2 GT ISZERO PUSH2 0x1AA8 JUMPI PUSH2 0x1AA7 PUSH2 0x156C JUMP JUMPDEST JUMPDEST PUSH2 0x1AB4 DUP14 DUP3 DUP15 ADD PUSH2 0x19FA JUMP JUMPDEST SWAP9 POP POP PUSH1 0x60 PUSH2 0x1AC5 DUP14 DUP3 DUP15 ADD PUSH2 0x15F0 JUMP JUMPDEST SWAP8 POP POP PUSH1 0x80 PUSH2 0x1AD6 DUP14 DUP3 DUP15 ADD PUSH2 0x15F0 JUMP JUMPDEST SWAP7 POP POP PUSH1 0xA0 PUSH2 0x1AE7 DUP14 DUP3 DUP15 ADD PUSH2 0x15BA JUMP JUMPDEST SWAP6 POP POP PUSH1 0xC0 DUP12 ADD CALLDATALOAD PUSH8 0xFFFFFFFFFFFFFFFF DUP2 GT ISZERO PUSH2 0x1B08 JUMPI PUSH2 0x1B07 PUSH2 0x156C JUMP JUMPDEST JUMPDEST PUSH2 0x1B14 DUP14 DUP3 DUP15 ADD PUSH2 0x19FA JUMP JUMPDEST SWAP5 POP POP PUSH1 0xE0 DUP12 ADD CALLDATALOAD PUSH8 0xFFFFFFFFFFFFFFFF DUP2 GT ISZERO PUSH2 0x1B35 JUMPI PUSH2 0x1B34 PUSH2 0x156C JUMP JUMPDEST JUMPDEST PUSH2 0x1B41 DUP14 DUP3 DUP15 ADD PUSH2 0x19FA JUMP JUMPDEST SWAP4 POP POP PUSH2 0x100 PUSH2 0x1B53 DUP14 DUP3 DUP15 ADD PUSH2 0x15F0 JUMP JUMPDEST SWAP3 POP POP PUSH2 0x120 PUSH2 0x1B65 DUP14 DUP3 DUP15 ADD PUSH2 0x15F0 JUMP JUMPDEST SWAP2 POP POP SWAP3 SWAP6 SWAP9 SWAP12 SWAP2 SWAP5 SWAP8 SWAP11 POP SWAP3 SWAP6 SWAP9 POP JUMP JUMPDEST PUSH32 0x4E487B7100000000000000000000000000000000000000000000000000000000 PUSH1 0x0 MSTORE PUSH1 0x12 PUSH1 0x4 MSTORE PUSH1 0x24 PUSH1 0x0 REVERT JUMPDEST PUSH1 0x0 PUSH2 0x1BB1 DUP3 PUSH2 0x15CF JUMP JUMPDEST SWAP2 POP PUSH2 0x1BBC DUP4 PUSH2 0x15CF JUMP JUMPDEST SWAP3 POP DUP3 PUSH2 0x1BCC JUMPI PUSH2 0x1BCB PUSH2 0x1B77 JUMP JUMPDEST JUMPDEST DUP3 DUP3 MOD SWAP1 POP SWAP3 SWAP2 POP POP JUMP JUMPDEST PUSH32 0x4E487B7100000000000000000000000000000000000000000000000000000000 PUSH1 0x0 MSTORE PUSH1 0x11 PUSH1 0x4 MSTORE PUSH1 0x24 PUSH1 0x0 REVERT JUMPDEST PUSH1 0x0 PUSH2 0x1C11 DUP3 PUSH2 0x15CF JUMP JUMPDEST SWAP2 POP PUSH2 0x1C1C DUP4 PUSH2 0x15CF JUMP JUMPDEST SWAP3 POP DUP3 PUSH32 0xFFFFFFFFFFFFFFFFFFFFFFFFFFFFFFFFFFFFFFFFFFFFFFFFFFFFFFFFFFFFFFFF SUB DUP3 GT ISZERO PUSH2 0x1C51 JUMPI PUSH2 0x1C50 PUSH2 0x1BD7 JUMP JUMPDEST JUMPDEST DUP3 DUP3 ADD SWAP1 POP SWAP3 SWAP2 POP POP JUMP JUMPDEST PUSH32 0x436F6D706C657465207365616C696E6720706572696F642063616E206E6F7420 PUSH1 0x0 DUP3 ADD MSTORE PUSH32 0x6265206578747261637465640000000000000000000000000000000000000000 PUSH1 0x20 DUP3 ADD MSTORE POP JUMP JUMPDEST PUSH1 0x0 PUSH2 0x1CB8 PUSH1 0x2C DUP4 PUSH2 0x17E2 JUMP JUMPDEST SWAP2 POP PUSH2 0x1CC3 DUP3 PUSH2 0x1C5C JUMP JUMPDEST PUSH1 0x40 DUP3 ADD SWAP1 POP SWAP2 SWAP1 POP JUMP JUMPDEST PUSH1 0x0 PUSH1 0x20 DUP3 ADD SWAP1 POP DUP2 DUP2 SUB PUSH1 0x0 DUP4 ADD MSTORE PUSH2 0x1CE7 DUP2 PUSH2 0x1CAB JUMP JUMPDEST SWAP1 POP SWAP2 SWAP1 POP JUMP JUMPDEST PUSH32 0x4E487B7100000000000000000000000000000000000000000000000000000000 PUSH1 0x0 MSTORE PUSH1 0x32 PUSH1 0x4 MSTORE PUSH1 0x24 PUSH1 0x0 REVERT JUMPDEST PUSH1 0x0 PUSH1 0x40 DUP3 ADD SWAP1 POP PUSH2 0x1D32 PUSH1 0x0 DUP4 ADD DUP6 PUSH2 0x1751 JUMP JUMPDEST PUSH2 0x1D3F PUSH1 0x20 DUP4 ADD DUP5 PUSH2 0x1658 JUMP JUMPDEST SWAP4 SWAP3 POP POP POP JUMP JUMPDEST PUSH1 0x0 DUP2 ISZERO ISZERO SWAP1 POP SWAP2 SWAP1 POP JUMP JUMPDEST PUSH2 0x1D5B DUP2 PUSH2 0x1D46 JUMP JUMPDEST DUP2 EQ PUSH2 0x1D66 JUMPI PUSH1 0x0 DUP1 REVERT JUMPDEST POP JUMP JUMPDEST PUSH1 0x0 DUP2 MLOAD SWAP1 POP PUSH2 0x1D78 DUP2 PUSH2 0x1D52 JUMP JUMPDEST SWAP3 SWAP2 POP POP JUMP JUMPDEST PUSH1 0x0 PUSH1 0x20 DUP3 DUP5 SUB SLT ISZERO PUSH2 0x1D94 JUMPI PUSH2 0x1D93 PUSH2 0x1567 JUMP JUMPDEST JUMPDEST PUSH1 0x0 PUSH2 0x1DA2 DUP5 DUP3 DUP6 ADD PUSH2 0x1D69 JUMP JUMPDEST SWAP2 POP POP SWAP3 SWAP2 POP POP JUMP JUMPDEST PUSH1 0x0 PUSH2 0x1DB6 DUP3 PUSH2 0x15CF JUMP JUMPDEST SWAP2 POP PUSH2 0x1DC1 DUP4 PUSH2 0x15CF JUMP JUMPDEST SWAP3 POP DUP3 DUP3 LT ISZERO PUSH2 0x1DD4 JUMPI PUSH2 0x1DD3 PUSH2 0x1BD7 JUMP JUMPDEST JUMPDEST DUP3 DUP3 SUB SWAP1 POP SWAP3 SWAP2 POP POP JUMP JUMPDEST PUSH1 0x0 PUSH2 0x1DEA DUP3 PUSH2 0x15CF JUMP JUMPDEST SWAP2 POP PUSH2 0x1DF5 DUP4 PUSH2 0x15CF JUMP JUMPDEST SWAP3 POP DUP2 PUSH32 0xFFFFFFFFFFFFFFFFFFFFFFFFFFFFFFFFFFFFFFFFFFFFFFFFFFFFFFFFFFFFFFFF DIV DUP4 GT DUP3 ISZERO ISZERO AND ISZERO PUSH2 0x1E2E JUMPI PUSH2 0x1E2D PUSH2 0x1BD7 JUMP JUMPDEST JUMPDEST DUP3 DUP3 MUL SWAP1 POP SWAP3 SWAP2 POP POP JUMP JUMPDEST PUSH1 0x0 PUSH2 0x1E44 DUP3 PUSH2 0x15CF JUMP JUMPDEST SWAP2 POP PUSH2 0x1E4F DUP4 PUSH2 0x15CF JUMP JUMPDEST SWAP3 POP DUP3 PUSH2 0x1E5F JUMPI PUSH2 0x1E5E PUSH2 0x1B77 JUMP JUMPDEST JUMPDEST DUP3 DUP3 DIV SWAP1 POP SWAP3 SWAP2 POP POP JUMP JUMPDEST PUSH32 0x6578636573732072656C65617365206C696D6974000000000000000000000000 PUSH1 0x0 DUP3 ADD MSTORE POP JUMP JUMPDEST PUSH1 0x0 PUSH2 0x1EA0 PUSH1 0x14 DUP4 PUSH2 0x17E2 JUMP JUMPDEST SWAP2 POP PUSH2 0x1EAB DUP3 PUSH2 0x1E6A JUMP JUMPDEST PUSH1 0x20 DUP3 ADD SWAP1 POP SWAP2 SWAP1 POP JUMP JUMPDEST PUSH1 0x0 PUSH1 0x20 DUP3 ADD SWAP1 POP DUP2 DUP2 SUB PUSH1 0x0 DUP4 ADD MSTORE PUSH2 0x1ECF DUP2 PUSH2 0x1E93 JUMP JUMPDEST SWAP1 POP SWAP2 SWAP1 POP JUMP JUMPDEST PUSH1 0x0 PUSH1 0x60 DUP3 ADD SWAP1 POP PUSH2 0x1EEB PUSH1 0x0 DUP4 ADD DUP7 PUSH2 0x1658 JUMP JUMPDEST PUSH2 0x1EF8 PUSH1 0x20 DUP4 ADD DUP6 PUSH2 0x1658 JUMP JUMPDEST PUSH2 0x1F05 PUSH1 0x40 DUP4 ADD DUP5 PUSH2 0x1658 JUMP JUMPDEST SWAP5 SWAP4 POP POP POP POP JUMP JUMPDEST PUSH32 0x6F7665722063697263756C6174696F6E00000000000000000000000000000000 PUSH1 0x0 DUP3 ADD MSTORE POP JUMP JUMPDEST PUSH1 0x0 PUSH2 0x1F43 PUSH1 0x10 DUP4 PUSH2 0x17E2 JUMP JUMPDEST SWAP2 POP PUSH2 0x1F4E DUP3 PUSH2 0x1F0D JUMP JUMPDEST PUSH1 0x20 DUP3 ADD SWAP1 POP SWAP2 SWAP1 POP JUMP JUMPDEST PUSH1 0x0 PUSH1 0x20 DUP3 ADD SWAP1 POP DUP2 DUP2 SUB PUSH1 0x0 DUP4 ADD MSTORE PUSH2 0x1F72 DUP2 PUSH2 0x1F36 JUMP JUMPDEST SWAP1 POP SWAP2 SWAP1 POP JUMP JUMPDEST PUSH32 0x4E487B7100000000000000000000000000000000000000000000000000000000 PUSH1 0x0 MSTORE PUSH1 0x22 PUSH1 0x4 MSTORE PUSH1 0x24 PUSH1 0x0 REVERT JUMPDEST PUSH1 0x0 PUSH1 0x2 DUP3 DIV SWAP1 POP PUSH1 0x1 DUP3 AND DUP1 PUSH2 0x1FC0 JUMPI PUSH1 0x7F DUP3 AND SWAP2 POP JUMPDEST PUSH1 0x20 DUP3 LT DUP2 EQ ISZERO PUSH2 0x1FD4 JUMPI PUSH2 0x1FD3 PUSH2 0x1F79 JUMP JUMPDEST JUMPDEST POP SWAP2 SWAP1 POP JUMP JUMPDEST PUSH1 0x0 PUSH2 0x140 DUP3 ADD SWAP1 POP PUSH2 0x1FF0 PUSH1 0x0 DUP4 ADD DUP14 PUSH2 0x1751 JUMP JUMPDEST DUP2 DUP2 SUB PUSH1 0x20 DUP4 ADD MSTORE PUSH2 0x2002 DUP2 DUP13 PUSH2 0x1837 JUMP JUMPDEST SWAP1 POP DUP2 DUP2 SUB PUSH1 0x40 DUP4 ADD MSTORE PUSH2 0x2016 DUP2 DUP12 PUSH2 0x1837 JUMP JUMPDEST SWAP1 POP PUSH2 0x2025 PUSH1 0x60 DUP4 ADD DUP11 PUSH2 0x1658 JUMP JUMPDEST PUSH2 0x2032 PUSH1 0x80 DUP4 ADD DUP10 PUSH2 0x1658 JUMP JUMPDEST PUSH2 0x203F PUSH1 0xA0 DUP4 ADD DUP9 PUSH2 0x1751 JUMP JUMPDEST DUP2 DUP2 SUB PUSH1 0xC0 DUP4 ADD MSTORE PUSH2 0x2051 DUP2 DUP8 PUSH2 0x1837 JUMP JUMPDEST SWAP1 POP DUP2 DUP2 SUB PUSH1 0xE0 DUP4 ADD MSTORE PUSH2 0x2065 DUP2 DUP7 PUSH2 0x1837 JUMP JUMPDEST SWAP1 POP PUSH2 0x2075 PUSH2 0x100 DUP4 ADD DUP6 PUSH2 0x1658 JUMP JUMPDEST PUSH2 0x2083 PUSH2 0x120 DUP4 ADD DUP5 PUSH2 0x1658 JUMP JUMPDEST SWAP12 SWAP11 POP POP POP POP POP POP POP POP POP POP POP JUMP JUMPDEST PUSH1 0x0 PUSH1 0x60 DUP3 ADD SWAP1 POP PUSH2 0x20A7 PUSH1 0x0 DUP4 ADD DUP7 PUSH2 0x1751 JUMP JUMPDEST PUSH2 0x20B4 PUSH1 0x20 DUP4 ADD DUP6 PUSH2 0x1751 JUMP JUMPDEST PUSH2 0x20C1 PUSH1 0x40 DUP4 ADD DUP5 PUSH2 0x1658 JUMP JUMPDEST SWAP5 SWAP4 POP POP POP POP JUMP JUMPDEST PUSH1 0x0 DUP2 MLOAD SWAP1 POP SWAP2 SWAP1 POP JUMP JUMPDEST PUSH1 0x0 DUP2 SWAP1 POP SWAP3 SWAP2 POP POP JUMP JUMPDEST PUSH1 0x0 PUSH2 0x20EA DUP3 PUSH2 0x20C9 JUMP JUMPDEST PUSH2 0x20F4 DUP2 DUP6 PUSH2 0x20D4 JUMP JUMPDEST SWAP4 POP PUSH2 0x2104 DUP2 DUP6 PUSH1 0x20 DUP7 ADD PUSH2 0x17F3 JUMP JUMPDEST DUP1 DUP5 ADD SWAP2 POP POP SWAP3 SWAP2 POP POP JUMP JUMPDEST PUSH1 0x0 PUSH2 0x211C DUP3 DUP5 PUSH2 0x20DF JUMP JUMPDEST SWAP2 POP DUP2 SWAP1 POP SWAP3 SWAP2 POP POP JUMP JUMPDEST PUSH32 0x5472616E7366657248656C7065723A205452414E534645525F46524F4D5F4641 PUSH1 0x0 DUP3 ADD MSTORE PUSH32 0x494C454400000000000000000000000000000000000000000000000000000000 PUSH1 0x20 DUP3 ADD MSTORE POP JUMP JUMPDEST PUSH1 0x0 PUSH2 0x2183 PUSH1 0x24 DUP4 PUSH2 0x17E2 JUMP JUMPDEST SWAP2 POP PUSH2 0x218E DUP3 PUSH2 0x2127 JUMP JUMPDEST PUSH1 0x40 DUP3 ADD SWAP1 POP SWAP2 SWAP1 POP JUMP JUMPDEST PUSH1 0x0 PUSH1 0x20 DUP3 ADD SWAP1 POP DUP2 DUP2 SUB PUSH1 0x0 DUP4 ADD MSTORE PUSH2 0x21B2 DUP2 PUSH2 0x2176 JUMP JUMPDEST SWAP1 POP SWAP2 SWAP1 POP JUMP INVALID PUSH21 0x68652065786368616E67652072617465206F662061 PUSH8 0x7265656420616D6F PUSH22 0x6E74A2646970667358221220E9E6B91D17B2253D67DB EQ 0xBB SMOD 0xE9 0xF9 PUSH11 0xE14746A28F68E13D98784F EXTCODEHASH 0xE0 0xE2 SIGNEXTEND GAS PUSH5 0x736F6C6343 STOP ADDMOD SIGNEXTEND STOP CALLER "
		},
		"gasEstimates": {
			"creation": {
				"codeDepositCost": "1744200",
				"executionCost": "infinite",
				"totalCost": "infinite"
			},
			"external": {
				"addToken(address,string,string,uint256,uint256,address,string,string,uint256,uint256)": "infinite",
				"appointExchangeInfo()": "infinite",
				"closePeriod()": "2474",
				"deposit(address,uint256)": "infinite",
				"exchangeToken(address,uint256,uint256)": "infinite",
				"factoryIntroduction()": "infinite",
				"factoryLogo()": "infinite",
				"factoryName()": "infinite",
				"list1(uint256)": "infinite",
				"list2(uint256)": "infinite",
				"list3(uint256)": "infinite",
				"rate()": "2497",
				"releasePeriod()": "2496",
				"setExchangeRate(uint256,uint256,uint256,uint256,uint256,uint256,uint256)": "infinite",
				"time()": "2475"
			}
		},
		"methodIdentifiers": {
			"addToken(address,string,string,uint256,uint256,address,string,string,uint256,uint256)": "e4e79a0c",
			"appointExchangeInfo()": "9b2627c8",
			"closePeriod()": "507a7328",
			"deposit(address,uint256)": "47e7ef24",
			"exchangeToken(address,uint256,uint256)": "0dfd9d9c",
			"factoryIntroduction()": "db19eeb0",
			"factoryLogo()": "4d93fb3c",
			"factoryName()": "4ef4e387",
			"list1(uint256)": "67ed729b",
			"list2(uint256)": "c4c38901",
			"list3(uint256)": "4262ee4b",
			"rate()": "2c4e722e",
			"releasePeriod()": "63ef1627",
			"setExchangeRate(uint256,uint256,uint256,uint256,uint256,uint256,uint256)": "3d8b08cc",
			"time()": "16ada547"
		}
	},
	"abi": [
		{
			"inputs": [
				{
					"internalType": "string",
					"name": "name",
					"type": "string"
				},
				{
					"internalType": "string",
					"name": "logo",
					"type": "string"
				},
				{
					"internalType": "string",
					"name": "info",
					"type": "string"
				}
			],
			"stateMutability": "nonpayable",
			"type": "constructor"
		},
		{
			"anonymous": false,
			"inputs": [
				{
					"indexed": false,
					"internalType": "address",
					"name": "_token1",
					"type": "address"
				},
				{
					"indexed": false,
					"internalType": "string",
					"name": "_name1",
					"type": "string"
				},
				{
					"indexed": false,
					"internalType": "string",
					"name": "_symbol1",
					"type": "string"
				},
				{
					"indexed": false,
					"internalType": "uint256",
					"name": "_price1",
					"type": "uint256"
				},
				{
					"indexed": false,
					"internalType": "uint256",
					"name": "_circulation1",
					"type": "uint256"
				},
				{
					"indexed": false,
					"internalType": "address",
					"name": "_token2",
					"type": "address"
				},
				{
					"indexed": false,
					"internalType": "string",
					"name": "_name2",
					"type": "string"
				},
				{
					"indexed": false,
					"internalType": "string",
					"name": "_symbol2",
					"type": "string"
				},
				{
					"indexed": false,
					"internalType": "uint256",
					"name": "_price2",
					"type": "uint256"
				},
				{
					"indexed": false,
					"internalType": "uint256",
					"name": "_circulation2",
					"type": "uint256"
				}
			],
			"name": "AddToken",
			"type": "event"
		},
		{
			"anonymous": false,
			"inputs": [
				{
					"indexed": false,
					"internalType": "address",
					"name": "token2",
					"type": "address"
				},
				{
					"indexed": false,
					"internalType": "uint256",
					"name": "amount",
					"type": "uint256"
				}
			],
			"name": "Deposit",
			"type": "event"
		},
		{
			"anonymous": false,
			"inputs": [
				{
					"indexed": false,
					"internalType": "uint256",
					"name": "rates",
					"type": "uint256"
				},
				{
					"indexed": false,
					"internalType": "uint256",
					"name": "_releasePeriod",
					"type": "uint256"
				},
				{
					"indexed": false,
					"internalType": "uint256",
					"name": "_closePeriod",
					"type": "uint256"
				}
			],
			"name": "SetExchangeRate",
			"type": "event"
		},
		{
			"inputs": [
				{
					"internalType": "address",
					"name": "_token1",
					"type": "address"
				},
				{
					"internalType": "string",
					"name": "_name1",
					"type": "string"
				},
				{
					"internalType": "string",
					"name": "_symbol1",
					"type": "string"
				},
				{
					"internalType": "uint256",
					"name": "_price1",
					"type": "uint256"
				},
				{
					"internalType": "uint256",
					"name": "_circulation1",
					"type": "uint256"
				},
				{
					"internalType": "address",
					"name": "_token2",
					"type": "address"
				},
				{
					"internalType": "string",
					"name": "_name2",
					"type": "string"
				},
				{
					"internalType": "string",
					"name": "_symbol2",
					"type": "string"
				},
				{
					"internalType": "uint256",
					"name": "_price2",
					"type": "uint256"
				},
				{
					"internalType": "uint256",
					"name": "_circulation2",
					"type": "uint256"
				}
			],
			"name": "addToken",
			"outputs": [],
			"stateMutability": "nonpayable",
			"type": "function"
		},
		{
			"inputs": [],
			"name": "appointExchangeInfo",
			"outputs": [
				{
					"internalType": "string",
					"name": "",
					"type": "string"
				}
			],
			"stateMutability": "view",
			"type": "function"
		},
		{
			"inputs": [],
			"name": "closePeriod",
			"outputs": [
				{
					"internalType": "uint256",
					"name": "",
					"type": "uint256"
				}
			],
			"stateMutability": "view",
			"type": "function"
		},
		{
			"inputs": [
				{
					"internalType": "address",
					"name": "token2",
					"type": "address"
				},
				{
					"internalType": "uint256",
					"name": "amount",
					"type": "uint256"
				}
			],
			"name": "deposit",
			"outputs": [],
			"stateMutability": "nonpayable",
			"type": "function"
		},
		{
			"inputs": [
				{
					"internalType": "address",
					"name": "token",
					"type": "address"
				},
				{
					"internalType": "uint256",
					"name": "number",
					"type": "uint256"
				},
				{
					"internalType": "uint256",
					"name": "amount",
					"type": "uint256"
				}
			],
			"name": "exchangeToken",
			"outputs": [],
			"stateMutability": "nonpayable",
			"type": "function"
		},
		{
			"inputs": [],
			"name": "factoryIntroduction",
			"outputs": [
				{
					"internalType": "string",
					"name": "",
					"type": "string"
				}
			],
			"stateMutability": "view",
			"type": "function"
		},
		{
			"inputs": [],
			"name": "factoryLogo",
			"outputs": [
				{
					"internalType": "string",
					"name": "",
					"type": "string"
				}
			],
			"stateMutability": "view",
			"type": "function"
		},
		{
			"inputs": [],
			"name": "factoryName",
			"outputs": [
				{
					"internalType": "string",
					"name": "",
					"type": "string"
				}
			],
			"stateMutability": "view",
			"type": "function"
		},
		{
			"inputs": [
				{
					"internalType": "uint256",
					"name": "",
					"type": "uint256"
				}
			],
			"name": "list1",
			"outputs": [
				{
					"internalType": "address",
					"name": "token",
					"type": "address"
				},
				{
					"internalType": "string",
					"name": "name",
					"type": "string"
				},
				{
					"internalType": "string",
					"name": "symbol",
					"type": "string"
				},
				{
					"internalType": "uint256",
					"name": "price",
					"type": "uint256"
				},
				{
					"internalType": "uint256",
					"name": "circulation",
					"type": "uint256"
				}
			],
			"stateMutability": "view",
			"type": "function"
		},
		{
			"inputs": [
				{
					"internalType": "uint256",
					"name": "",
					"type": "uint256"
				}
			],
			"name": "list2",
			"outputs": [
				{
					"internalType": "address",
					"name": "token",
					"type": "address"
				},
				{
					"internalType": "string",
					"name": "name",
					"type": "string"
				},
				{
					"internalType": "string",
					"name": "symbol",
					"type": "string"
				},
				{
					"internalType": "uint256",
					"name": "price",
					"type": "uint256"
				},
				{
					"internalType": "uint256",
					"name": "circulation",
					"type": "uint256"
				}
			],
			"stateMutability": "view",
			"type": "function"
		},
		{
			"inputs": [
				{
					"internalType": "uint256",
					"name": "",
					"type": "uint256"
				}
			],
			"name": "list3",
			"outputs": [
				{
					"internalType": "uint256",
					"name": "amount",
					"type": "uint256"
				},
				{
					"internalType": "address",
					"name": "user",
					"type": "address"
				},
				{
					"internalType": "uint256",
					"name": "time",
					"type": "uint256"
				}
			],
			"stateMutability": "view",
			"type": "function"
		},
		{
			"inputs": [],
			"name": "rate",
			"outputs": [
				{
					"internalType": "uint256",
					"name": "",
					"type": "uint256"
				}
			],
			"stateMutability": "view",
			"type": "function"
		},
		{
			"inputs": [],
			"name": "releasePeriod",
			"outputs": [
				{
					"internalType": "uint256",
					"name": "",
					"type": "uint256"
				}
			],
			"stateMutability": "view",
			"type": "function"
		},
		{
			"inputs": [
				{
					"internalType": "uint256",
					"name": "number",
					"type": "uint256"
				},
				{
					"internalType": "uint256",
					"name": "rates",
					"type": "uint256"
				},
				{
					"internalType": "uint256",
					"name": "way",
					"type": "uint256"
				},
				{
					"internalType": "uint256",
					"name": "price1",
					"type": "uint256"
				},
				{
					"internalType": "uint256",
					"name": "price2",
					"type": "uint256"
				},
				{
					"internalType": "uint256",
					"name": "_releasePeriod",
					"type": "uint256"
				},
				{
					"internalType": "uint256",
					"name": "_closePeriod",
					"type": "uint256"
				}
			],
			"name": "setExchangeRate",
			"outputs": [],
			"stateMutability": "nonpayable",
			"type": "function"
		},
		{
			"inputs": [],
			"name": "time",
			"outputs": [
				{
					"internalType": "uint256",
					"name": "",
					"type": "uint256"
				}
			],
			"stateMutability": "view",
			"type": "function"
		}
	]
}